{
	"Contracts/Encoding.sol": {
		"Encoding": {
			"abi": [
				{
					"inputs": [],
					"name": "combineStrings",
					"outputs": [
						{
							"internalType": "string",
							"name": "",
							"type": "string"
						}
					],
					"stateMutability": "pure",
					"type": "function"
				},
				{
					"inputs": [],
					"name": "decodeString",
					"outputs": [
						{
							"internalType": "string",
							"name": "",
							"type": "string"
						}
					],
					"stateMutability": "pure",
					"type": "function"
				},
				{
					"inputs": [],
					"name": "encodeNumber",
					"outputs": [
						{
							"internalType": "bytes",
							"name": "",
							"type": "bytes"
						}
					],
					"stateMutability": "pure",
					"type": "function"
				},
				{
					"inputs": [],
					"name": "encodeString",
					"outputs": [
						{
							"internalType": "bytes",
							"name": "",
							"type": "bytes"
						}
					],
					"stateMutability": "pure",
					"type": "function"
				},
				{
					"inputs": [],
					"name": "encodeStringBytes",
					"outputs": [
						{
							"internalType": "bytes",
							"name": "",
							"type": "bytes"
						}
					],
					"stateMutability": "pure",
					"type": "function"
				},
				{
					"inputs": [],
					"name": "encodeStringPacked",
					"outputs": [
						{
							"internalType": "bytes",
							"name": "",
							"type": "bytes"
						}
					],
					"stateMutability": "pure",
					"type": "function"
				},
				{
					"inputs": [],
					"name": "multiDecode",
					"outputs": [
						{
							"internalType": "string",
							"name": "",
							"type": "string"
						},
						{
							"internalType": "string",
							"name": "",
							"type": "string"
						}
					],
					"stateMutability": "pure",
					"type": "function"
				},
				{
					"inputs": [],
					"name": "multiDecodePacked",
					"outputs": [
						{
							"internalType": "string",
							"name": "",
							"type": "string"
						}
					],
					"stateMutability": "pure",
					"type": "function"
				},
				{
					"inputs": [],
					"name": "multiEncode",
					"outputs": [
						{
							"internalType": "bytes",
							"name": "",
							"type": "bytes"
						}
					],
					"stateMutability": "pure",
					"type": "function"
				},
				{
					"inputs": [],
					"name": "multiEncodePacked",
					"outputs": [
						{
							"internalType": "bytes",
							"name": "",
							"type": "bytes"
						}
					],
					"stateMutability": "pure",
					"type": "function"
				},
				{
					"inputs": [],
					"name": "multiStringCastPacked",
					"outputs": [
						{
							"internalType": "string",
							"name": "",
							"type": "string"
						}
					],
					"stateMutability": "pure",
					"type": "function"
				}
			],
			"devdoc": {
				"kind": "dev",
				"methods": {},
				"version": 1
			},
			"evm": {
				"assembly": "    /* \"Contracts/Encoding.sol\":58:1812  contract Encoding {... */\n  mstore(0x40, 0x80)\n  callvalue\n  dup1\n  iszero\n  tag_1\n  jumpi\n  0x00\n  dup1\n  revert\ntag_1:\n  pop\n  dataSize(sub_0)\n  dup1\n  dataOffset(sub_0)\n  0x00\n  codecopy\n  0x00\n  return\nstop\n\nsub_0: assembly {\n        /* \"Contracts/Encoding.sol\":58:1812  contract Encoding {... */\n      mstore(0x40, 0x80)\n      callvalue\n      dup1\n      iszero\n      tag_1\n      jumpi\n      0x00\n      dup1\n      revert\n    tag_1:\n      pop\n      jumpi(tag_2, lt(calldatasize, 0x04))\n      shr(0xe0, calldataload(0x00))\n      dup1\n      0x929b807e\n      gt\n      tag_14\n      jumpi\n      dup1\n      0x929b807e\n      eq\n      tag_8\n      jumpi\n      dup1\n      0xa6dc49b8\n      eq\n      tag_9\n      jumpi\n      dup1\n      0xa77b0360\n      eq\n      tag_10\n      jumpi\n      dup1\n      0xb4748718\n      eq\n      tag_11\n      jumpi\n      dup1\n      0xc452d79b\n      eq\n      tag_12\n      jumpi\n      dup1\n      0xed5df365\n      eq\n      tag_13\n      jumpi\n      jump(tag_2)\n    tag_14:\n      dup1\n      0x114a7610\n      eq\n      tag_3\n      jumpi\n      dup1\n      0x15889d1a\n      eq\n      tag_4\n      jumpi\n      dup1\n      0x2085f4b9\n      eq\n      tag_5\n      jumpi\n      dup1\n      0x406ec9f2\n      eq\n      tag_6\n      jumpi\n      dup1\n      0x60ee46c3\n      eq\n      tag_7\n      jumpi\n    tag_2:\n      0x00\n      dup1\n      revert\n        /* \"Contracts/Encoding.sol\":79:200  function combineStrings() public pure returns(string memory) {... */\n    tag_3:\n      tag_15\n      tag_16\n      jump\t// in\n    tag_15:\n      mload(0x40)\n      tag_17\n      swap2\n      swap1\n      tag_18\n      jump\t// in\n    tag_17:\n      mload(0x40)\n      dup1\n      swap2\n      sub\n      swap1\n      return\n        /* \"Contracts/Encoding.sol\":202:315  function encodeNumber() public pure returns(bytes memory) {... */\n    tag_4:\n      tag_19\n      tag_20\n      jump\t// in\n    tag_19:\n      mload(0x40)\n      tag_21\n      swap2\n      swap1\n      tag_22\n      jump\t// in\n    tag_21:\n      mload(0x40)\n      dup1\n      swap2\n      sub\n      swap1\n      return\n        /* \"Contracts/Encoding.sol\":497:649  function encodeStringPacked() public pure returns(bytes memory) {... */\n    tag_5:\n      tag_23\n      tag_24\n      jump\t// in\n    tag_23:\n      mload(0x40)\n      tag_25\n      swap2\n      swap1\n      tag_22\n      jump\t// in\n    tag_25:\n      mload(0x40)\n      dup1\n      swap2\n      sub\n      swap1\n      return\n        /* \"Contracts/Encoding.sol\":651:791  function encodeStringBytes() public pure returns(bytes memory) {... */\n    tag_6:\n      tag_26\n      tag_27\n      jump\t// in\n    tag_26:\n      mload(0x40)\n      tag_28\n      swap2\n      swap1\n      tag_22\n      jump\t// in\n    tag_28:\n      mload(0x40)\n      dup1\n      swap2\n      sub\n      swap1\n      return\n        /* \"Contracts/Encoding.sol\":1662:1808  function multiStringCastPacked() public pure returns(string memory) {... */\n    tag_7:\n      tag_29\n      tag_30\n      jump\t// in\n    tag_29:\n      mload(0x40)\n      tag_31\n      swap2\n      swap1\n      tag_18\n      jump\t// in\n    tag_31:\n      mload(0x40)\n      dup1\n      swap2\n      sub\n      swap1\n      return\n        /* \"Contracts/Encoding.sol\":1504:1660  function multiDecodePacked() public pure returns(string memory) {... */\n    tag_8:\n      tag_32\n      tag_33\n      jump\t// in\n    tag_32:\n      mload(0x40)\n      tag_34\n      swap2\n      swap1\n      tag_18\n      jump\t// in\n    tag_34:\n      mload(0x40)\n      dup1\n      swap2\n      sub\n      swap1\n      return\n        /* \"Contracts/Encoding.sol\":950:1104  function multiEncode() public pure returns(bytes memory) {... */\n    tag_9:\n      tag_35\n      tag_36\n      jump\t// in\n    tag_35:\n      mload(0x40)\n      tag_37\n      swap2\n      swap1\n      tag_22\n      jump\t// in\n    tag_37:\n      mload(0x40)\n      dup1\n      swap2\n      sub\n      swap1\n      return\n        /* \"Contracts/Encoding.sol\":793:947  function decodeString() public pure returns(string memory) {... */\n    tag_10:\n      tag_38\n      tag_39\n      jump\t// in\n    tag_38:\n      mload(0x40)\n      tag_40\n      swap2\n      swap1\n      tag_18\n      jump\t// in\n    tag_40:\n      mload(0x40)\n      dup1\n      swap2\n      sub\n      swap1\n      return\n        /* \"Contracts/Encoding.sol\":1335:1502  function multiEncodePacked() public pure returns(bytes memory) {... */\n    tag_11:\n      tag_41\n      tag_42\n      jump\t// in\n    tag_41:\n      mload(0x40)\n      tag_43\n      swap2\n      swap1\n      tag_22\n      jump\t// in\n    tag_43:\n      mload(0x40)\n      dup1\n      swap2\n      sub\n      swap1\n      return\n        /* \"Contracts/Encoding.sol\":1106:1333  function multiDecode() public pure returns(string memory, string memory) {... */\n    tag_12:\n      tag_44\n      tag_45\n      jump\t// in\n    tag_44:\n      mload(0x40)\n      tag_46\n      swap3\n      swap2\n      swap1\n      tag_47\n      jump\t// in\n    tag_46:\n      mload(0x40)\n      dup1\n      swap2\n      sub\n      swap1\n      return\n        /* \"Contracts/Encoding.sol\":317:449  function encodeString() public pure returns(bytes memory) {... */\n    tag_13:\n      tag_48\n      tag_49\n      jump\t// in\n    tag_48:\n      mload(0x40)\n      tag_50\n      swap2\n      swap1\n      tag_22\n      jump\t// in\n    tag_50:\n      mload(0x40)\n      dup1\n      swap2\n      sub\n      swap1\n      return\n        /* \"Contracts/Encoding.sol\":79:200  function combineStrings() public pure returns(string memory) {... */\n    tag_16:\n        /* \"Contracts/Encoding.sol\":125:138  string memory */\n      0x60\n        /* \"Contracts/Encoding.sol\":156:196  abi.encodePacked(\"Hi Mom!\", \"Miss You!\") */\n      add(0x20, mload(0x40))\n      tag_52\n      swap1\n      tag_53\n      jump\t// in\n    tag_52:\n      mload(0x40)\n      0x20\n      dup2\n      dup4\n      sub\n      sub\n      dup2\n      mstore\n      swap1\n      0x40\n      mstore\n        /* \"Contracts/Encoding.sol\":142:197  return string(abi.encodePacked(\"Hi Mom!\", \"Miss You!\")) */\n      swap1\n      pop\n        /* \"Contracts/Encoding.sol\":79:200  function combineStrings() public pure returns(string memory) {... */\n      swap1\n      jump\t// out\n        /* \"Contracts/Encoding.sol\":202:315  function encodeNumber() public pure returns(bytes memory) {... */\n    tag_20:\n        /* \"Contracts/Encoding.sol\":246:258  bytes memory */\n      0x60\n        /* \"Contracts/Encoding.sol\":262:281  bytes memory number */\n      0x00\n        /* \"Contracts/Encoding.sol\":295:296  1 */\n      0x01\n        /* \"Contracts/Encoding.sol\":284:297  abi.encode(1) */\n      add(0x20, mload(0x40))\n      tag_55\n      swap2\n      swap1\n      tag_56\n      jump\t// in\n    tag_55:\n      mload(0x40)\n      0x20\n      dup2\n      dup4\n      sub\n      sub\n      dup2\n      mstore\n      swap1\n      0x40\n      mstore\n        /* \"Contracts/Encoding.sol\":262:297  bytes memory number = abi.encode(1) */\n      swap1\n      pop\n        /* \"Contracts/Encoding.sol\":306:312  number */\n      dup1\n        /* \"Contracts/Encoding.sol\":299:312  return number */\n      swap2\n      pop\n      pop\n        /* \"Contracts/Encoding.sol\":202:315  function encodeNumber() public pure returns(bytes memory) {... */\n      swap1\n      jump\t// out\n        /* \"Contracts/Encoding.sol\":497:649  function encodeStringPacked() public pure returns(bytes memory) {... */\n    tag_24:\n        /* \"Contracts/Encoding.sol\":547:559  bytes memory */\n      0x60\n        /* \"Contracts/Encoding.sol\":567:590  bytes memory someString */\n      0x00\n        /* \"Contracts/Encoding.sol\":593:623  abi.encodePacked(\"akhilmanga\") */\n      add(0x20, mload(0x40))\n      tag_58\n      swap1\n      tag_59\n      jump\t// in\n    tag_58:\n      mload(0x40)\n      0x20\n      dup2\n      dup4\n      sub\n      sub\n      dup2\n      mstore\n      swap1\n      0x40\n      mstore\n        /* \"Contracts/Encoding.sol\":567:623  bytes memory someString = abi.encodePacked(\"akhilmanga\") */\n      swap1\n      pop\n        /* \"Contracts/Encoding.sol\":636:646  someString */\n      dup1\n        /* \"Contracts/Encoding.sol\":629:646  return someString */\n      swap2\n      pop\n      pop\n        /* \"Contracts/Encoding.sol\":497:649  function encodeStringPacked() public pure returns(bytes memory) {... */\n      swap1\n      jump\t// out\n        /* \"Contracts/Encoding.sol\":651:791  function encodeStringBytes() public pure returns(bytes memory) {... */\n    tag_27:\n        /* \"Contracts/Encoding.sol\":700:712  bytes memory */\n      0x60\n        /* \"Contracts/Encoding.sol\":720:743  bytes memory someString */\n      0x00\n        /* \"Contracts/Encoding.sol\":746:765  bytes(\"akhilmanga\") */\n      mload(0x40)\n      dup1\n      0x40\n      add\n      0x40\n      mstore\n      dup1\n      0x0a\n      dup2\n      mstore\n      0x20\n      add\n      0x616b68696c6d616e676100000000000000000000000000000000000000000000\n      dup2\n      mstore\n      pop\n        /* \"Contracts/Encoding.sol\":720:765  bytes memory someString = bytes(\"akhilmanga\") */\n      swap1\n      pop\n        /* \"Contracts/Encoding.sol\":778:788  someString */\n      dup1\n        /* \"Contracts/Encoding.sol\":771:788  return someString */\n      swap2\n      pop\n      pop\n        /* \"Contracts/Encoding.sol\":651:791  function encodeStringBytes() public pure returns(bytes memory) {... */\n      swap1\n      jump\t// out\n        /* \"Contracts/Encoding.sol\":1662:1808  function multiStringCastPacked() public pure returns(string memory) {... */\n    tag_30:\n        /* \"Contracts/Encoding.sol\":1715:1728  string memory */\n      0x60\n        /* \"Contracts/Encoding.sol\":1732:1756  string memory someString */\n      0x00\n        /* \"Contracts/Encoding.sol\":1766:1785  multiEncodePacked() */\n      tag_62\n        /* \"Contracts/Encoding.sol\":1766:1783  multiEncodePacked */\n      tag_42\n        /* \"Contracts/Encoding.sol\":1766:1785  multiEncodePacked() */\n      jump\t// in\n    tag_62:\n        /* \"Contracts/Encoding.sol\":1732:1786  string memory someString = string(multiEncodePacked()) */\n      swap1\n      pop\n        /* \"Contracts/Encoding.sol\":1795:1805  someString */\n      dup1\n        /* \"Contracts/Encoding.sol\":1788:1805  return someString */\n      swap2\n      pop\n      pop\n        /* \"Contracts/Encoding.sol\":1662:1808  function multiStringCastPacked() public pure returns(string memory) {... */\n      swap1\n      jump\t// out\n        /* \"Contracts/Encoding.sol\":1504:1660  function multiDecodePacked() public pure returns(string memory) {... */\n    tag_33:\n        /* \"Contracts/Encoding.sol\":1553:1566  string memory */\n      0x60\n        /* \"Contracts/Encoding.sol\":1570:1594  string memory someString */\n      0x00\n        /* \"Contracts/Encoding.sol\":1608:1627  multiEncodePacked() */\n      tag_64\n        /* \"Contracts/Encoding.sol\":1608:1625  multiEncodePacked */\n      tag_42\n        /* \"Contracts/Encoding.sol\":1608:1627  multiEncodePacked() */\n      jump\t// in\n    tag_64:\n        /* \"Contracts/Encoding.sol\":1597:1638  abi.decode(multiEncodePacked(), (string)) */\n      dup1\n      0x20\n      add\n      swap1\n      mload\n      dup2\n      add\n      swap1\n      tag_65\n      swap2\n      swap1\n      tag_66\n      jump\t// in\n    tag_65:\n        /* \"Contracts/Encoding.sol\":1570:1638  string memory someString = abi.decode(multiEncodePacked(), (string)) */\n      swap1\n      pop\n        /* \"Contracts/Encoding.sol\":1647:1657  someString */\n      dup1\n        /* \"Contracts/Encoding.sol\":1640:1657  return someString */\n      swap2\n      pop\n      pop\n        /* \"Contracts/Encoding.sol\":1504:1660  function multiDecodePacked() public pure returns(string memory) {... */\n      swap1\n      jump\t// out\n        /* \"Contracts/Encoding.sol\":950:1104  function multiEncode() public pure returns(bytes memory) {... */\n    tag_36:\n        /* \"Contracts/Encoding.sol\":993:1005  bytes memory */\n      0x60\n        /* \"Contracts/Encoding.sol\":1013:1036  bytes memory someString */\n      0x00\n        /* \"Contracts/Encoding.sol\":1039:1078  abi.encode(\"akhilmanga\", \"nikhilmanga\") */\n      add(0x20, mload(0x40))\n      tag_68\n      swap1\n      tag_69\n      jump\t// in\n    tag_68:\n      mload(0x40)\n      0x20\n      dup2\n      dup4\n      sub\n      sub\n      dup2\n      mstore\n      swap1\n      0x40\n      mstore\n        /* \"Contracts/Encoding.sol\":1013:1078  bytes memory someString = abi.encode(\"akhilmanga\", \"nikhilmanga\") */\n      swap1\n      pop\n        /* \"Contracts/Encoding.sol\":1091:1101  someString */\n      dup1\n        /* \"Contracts/Encoding.sol\":1084:1101  return someString */\n      swap2\n      pop\n      pop\n        /* \"Contracts/Encoding.sol\":950:1104  function multiEncode() public pure returns(bytes memory) {... */\n      swap1\n      jump\t// out\n        /* \"Contracts/Encoding.sol\":793:947  function decodeString() public pure returns(string memory) {... */\n    tag_39:\n        /* \"Contracts/Encoding.sol\":837:850  string memory */\n      0x60\n        /* \"Contracts/Encoding.sol\":858:882  string memory someString */\n      0x00\n        /* \"Contracts/Encoding.sol\":896:910  encodeString() */\n      tag_71\n        /* \"Contracts/Encoding.sol\":896:908  encodeString */\n      tag_49\n        /* \"Contracts/Encoding.sol\":896:910  encodeString() */\n      jump\t// in\n    tag_71:\n        /* \"Contracts/Encoding.sol\":885:921  abi.decode(encodeString(), (string)) */\n      dup1\n      0x20\n      add\n      swap1\n      mload\n      dup2\n      add\n      swap1\n      tag_72\n      swap2\n      swap1\n      tag_66\n      jump\t// in\n    tag_72:\n        /* \"Contracts/Encoding.sol\":858:921  string memory someString = abi.decode(encodeString(), (string)) */\n      swap1\n      pop\n        /* \"Contracts/Encoding.sol\":934:944  someString */\n      dup1\n        /* \"Contracts/Encoding.sol\":927:944  return someString */\n      swap2\n      pop\n      pop\n        /* \"Contracts/Encoding.sol\":793:947  function decodeString() public pure returns(string memory) {... */\n      swap1\n      jump\t// out\n        /* \"Contracts/Encoding.sol\":1335:1502  function multiEncodePacked() public pure returns(bytes memory) {... */\n    tag_42:\n        /* \"Contracts/Encoding.sol\":1384:1396  bytes memory */\n      0x60\n        /* \"Contracts/Encoding.sol\":1404:1427  bytes memory someString */\n      0x00\n        /* \"Contracts/Encoding.sol\":1430:1476  abi.encodePacked(\"akhilmanga\",  \"nikhilmanga\") */\n      add(0x20, mload(0x40))\n      tag_74\n      swap1\n      tag_75\n      jump\t// in\n    tag_74:\n      mload(0x40)\n      0x20\n      dup2\n      dup4\n      sub\n      sub\n      dup2\n      mstore\n      swap1\n      0x40\n      mstore\n        /* \"Contracts/Encoding.sol\":1404:1476  bytes memory someString = abi.encodePacked(\"akhilmanga\",  \"nikhilmanga\") */\n      swap1\n      pop\n        /* \"Contracts/Encoding.sol\":1489:1499  someString */\n      dup1\n        /* \"Contracts/Encoding.sol\":1482:1499  return someString */\n      swap2\n      pop\n      pop\n        /* \"Contracts/Encoding.sol\":1335:1502  function multiEncodePacked() public pure returns(bytes memory) {... */\n      swap1\n      jump\t// out\n        /* \"Contracts/Encoding.sol\":1106:1333  function multiDecode() public pure returns(string memory, string memory) {... */\n    tag_45:\n        /* \"Contracts/Encoding.sol\":1149:1162  string memory */\n      0x60\n        /* \"Contracts/Encoding.sol\":1164:1177  string memory */\n      dup1\n        /* \"Contracts/Encoding.sol\":1186:1210  string memory someString */\n      0x00\n        /* \"Contracts/Encoding.sol\":1212:1241  string memory someOtherString */\n      dup1\n        /* \"Contracts/Encoding.sol\":1256:1269  multiEncode() */\n      tag_77\n        /* \"Contracts/Encoding.sol\":1256:1267  multiEncode */\n      tag_36\n        /* \"Contracts/Encoding.sol\":1256:1269  multiEncode() */\n      jump\t// in\n    tag_77:\n        /* \"Contracts/Encoding.sol\":1245:1288  abi.decode(multiEncode(), (string, string)) */\n      dup1\n      0x20\n      add\n      swap1\n      mload\n      dup2\n      add\n      swap1\n      tag_78\n      swap2\n      swap1\n      tag_79\n      jump\t// in\n    tag_78:\n        /* \"Contracts/Encoding.sol\":1185:1288  (string memory someString, string memory someOtherString) = abi.decode(multiEncode(), (string, string)) */\n      swap2\n      pop\n      swap2\n      pop\n        /* \"Contracts/Encoding.sol\":1302:1312  someString */\n      dup2\n        /* \"Contracts/Encoding.sol\":1314:1329  someOtherString */\n      dup2\n        /* \"Contracts/Encoding.sol\":1294:1330  return (someString, someOtherString) */\n      swap4\n      pop\n      swap4\n      pop\n      pop\n      pop\n        /* \"Contracts/Encoding.sol\":1106:1333  function multiDecode() public pure returns(string memory, string memory) {... */\n      swap1\n      swap2\n      jump\t// out\n        /* \"Contracts/Encoding.sol\":317:449  function encodeString() public pure returns(bytes memory) {... */\n    tag_49:\n        /* \"Contracts/Encoding.sol\":361:373  bytes memory */\n      0x60\n        /* \"Contracts/Encoding.sol\":377:400  bytes memory someString */\n      0x00\n        /* \"Contracts/Encoding.sol\":403:427  abi.encode(\"akhilmanga\") */\n      add(0x20, mload(0x40))\n      tag_81\n      swap1\n      tag_82\n      jump\t// in\n    tag_81:\n      mload(0x40)\n      0x20\n      dup2\n      dup4\n      sub\n      sub\n      dup2\n      mstore\n      swap1\n      0x40\n      mstore\n        /* \"Contracts/Encoding.sol\":377:427  bytes memory someString = abi.encode(\"akhilmanga\") */\n      swap1\n      pop\n        /* \"Contracts/Encoding.sol\":436:446  someString */\n      dup1\n        /* \"Contracts/Encoding.sol\":429:446  return someString */\n      swap2\n      pop\n      pop\n        /* \"Contracts/Encoding.sol\":317:449  function encodeString() public pure returns(bytes memory) {... */\n      swap1\n      jump\t// out\n        /* \"#utility.yul\":7:106   */\n    tag_83:\n        /* \"#utility.yul\":59:65   */\n      0x00\n        /* \"#utility.yul\":93:98   */\n      dup2\n        /* \"#utility.yul\":87:99   */\n      mload\n        /* \"#utility.yul\":77:99   */\n      swap1\n      pop\n        /* \"#utility.yul\":7:106   */\n      swap2\n      swap1\n      pop\n      jump\t// out\n        /* \"#utility.yul\":112:281   */\n    tag_84:\n        /* \"#utility.yul\":196:207   */\n      0x00\n        /* \"#utility.yul\":230:236   */\n      dup3\n        /* \"#utility.yul\":225:228   */\n      dup3\n        /* \"#utility.yul\":218:237   */\n      mstore\n        /* \"#utility.yul\":270:274   */\n      0x20\n        /* \"#utility.yul\":265:268   */\n      dup3\n        /* \"#utility.yul\":261:275   */\n      add\n        /* \"#utility.yul\":246:275   */\n      swap1\n      pop\n        /* \"#utility.yul\":112:281   */\n      swap3\n      swap2\n      pop\n      pop\n      jump\t// out\n        /* \"#utility.yul\":287:533   */\n    tag_85:\n        /* \"#utility.yul\":368:369   */\n      0x00\n        /* \"#utility.yul\":378:491   */\n    tag_122:\n        /* \"#utility.yul\":392:398   */\n      dup4\n        /* \"#utility.yul\":389:390   */\n      dup2\n        /* \"#utility.yul\":386:399   */\n      lt\n        /* \"#utility.yul\":378:491   */\n      iszero\n      tag_124\n      jumpi\n        /* \"#utility.yul\":477:478   */\n      dup1\n        /* \"#utility.yul\":472:475   */\n      dup3\n        /* \"#utility.yul\":468:479   */\n      add\n        /* \"#utility.yul\":462:480   */\n      mload\n        /* \"#utility.yul\":458:459   */\n      dup2\n        /* \"#utility.yul\":453:456   */\n      dup5\n        /* \"#utility.yul\":449:460   */\n      add\n        /* \"#utility.yul\":442:481   */\n      mstore\n        /* \"#utility.yul\":414:416   */\n      0x20\n        /* \"#utility.yul\":411:412   */\n      dup2\n        /* \"#utility.yul\":407:417   */\n      add\n        /* \"#utility.yul\":402:417   */\n      swap1\n      pop\n        /* \"#utility.yul\":378:491   */\n      jump(tag_122)\n    tag_124:\n        /* \"#utility.yul\":525:526   */\n      0x00\n        /* \"#utility.yul\":516:522   */\n      dup5\n        /* \"#utility.yul\":511:514   */\n      dup5\n        /* \"#utility.yul\":507:523   */\n      add\n        /* \"#utility.yul\":500:527   */\n      mstore\n        /* \"#utility.yul\":349:533   */\n      pop\n        /* \"#utility.yul\":287:533   */\n      pop\n      pop\n      pop\n      jump\t// out\n        /* \"#utility.yul\":539:641   */\n    tag_86:\n        /* \"#utility.yul\":580:586   */\n      0x00\n        /* \"#utility.yul\":631:633   */\n      0x1f\n        /* \"#utility.yul\":627:634   */\n      not\n        /* \"#utility.yul\":622:624   */\n      0x1f\n        /* \"#utility.yul\":615:620   */\n      dup4\n        /* \"#utility.yul\":611:625   */\n      add\n        /* \"#utility.yul\":607:635   */\n      and\n        /* \"#utility.yul\":597:635   */\n      swap1\n      pop\n        /* \"#utility.yul\":539:641   */\n      swap2\n      swap1\n      pop\n      jump\t// out\n        /* \"#utility.yul\":647:1024   */\n    tag_87:\n        /* \"#utility.yul\":735:738   */\n      0x00\n        /* \"#utility.yul\":763:802   */\n      tag_127\n        /* \"#utility.yul\":796:801   */\n      dup3\n        /* \"#utility.yul\":763:802   */\n      tag_83\n      jump\t// in\n    tag_127:\n        /* \"#utility.yul\":818:889   */\n      tag_128\n        /* \"#utility.yul\":882:888   */\n      dup2\n        /* \"#utility.yul\":877:880   */\n      dup6\n        /* \"#utility.yul\":818:889   */\n      tag_84\n      jump\t// in\n    tag_128:\n        /* \"#utility.yul\":811:889   */\n      swap4\n      pop\n        /* \"#utility.yul\":898:963   */\n      tag_129\n        /* \"#utility.yul\":956:962   */\n      dup2\n        /* \"#utility.yul\":951:954   */\n      dup6\n        /* \"#utility.yul\":944:948   */\n      0x20\n        /* \"#utility.yul\":937:942   */\n      dup7\n        /* \"#utility.yul\":933:949   */\n      add\n        /* \"#utility.yul\":898:963   */\n      tag_85\n      jump\t// in\n    tag_129:\n        /* \"#utility.yul\":988:1017   */\n      tag_130\n        /* \"#utility.yul\":1010:1016   */\n      dup2\n        /* \"#utility.yul\":988:1017   */\n      tag_86\n      jump\t// in\n    tag_130:\n        /* \"#utility.yul\":983:986   */\n      dup5\n        /* \"#utility.yul\":979:1018   */\n      add\n        /* \"#utility.yul\":972:1018   */\n      swap2\n      pop\n        /* \"#utility.yul\":739:1024   */\n      pop\n        /* \"#utility.yul\":647:1024   */\n      swap3\n      swap2\n      pop\n      pop\n      jump\t// out\n        /* \"#utility.yul\":1030:1343   */\n    tag_18:\n        /* \"#utility.yul\":1143:1147   */\n      0x00\n        /* \"#utility.yul\":1181:1183   */\n      0x20\n        /* \"#utility.yul\":1170:1179   */\n      dup3\n        /* \"#utility.yul\":1166:1184   */\n      add\n        /* \"#utility.yul\":1158:1184   */\n      swap1\n      pop\n        /* \"#utility.yul\":1230:1239   */\n      dup2\n        /* \"#utility.yul\":1224:1228   */\n      dup2\n        /* \"#utility.yul\":1220:1240   */\n      sub\n        /* \"#utility.yul\":1216:1217   */\n      0x00\n        /* \"#utility.yul\":1205:1214   */\n      dup4\n        /* \"#utility.yul\":1201:1218   */\n      add\n        /* \"#utility.yul\":1194:1241   */\n      mstore\n        /* \"#utility.yul\":1258:1336   */\n      tag_132\n        /* \"#utility.yul\":1331:1335   */\n      dup2\n        /* \"#utility.yul\":1322:1328   */\n      dup5\n        /* \"#utility.yul\":1258:1336   */\n      tag_87\n      jump\t// in\n    tag_132:\n        /* \"#utility.yul\":1250:1336   */\n      swap1\n      pop\n        /* \"#utility.yul\":1030:1343   */\n      swap3\n      swap2\n      pop\n      pop\n      jump\t// out\n        /* \"#utility.yul\":1349:1447   */\n    tag_88:\n        /* \"#utility.yul\":1400:1406   */\n      0x00\n        /* \"#utility.yul\":1434:1439   */\n      dup2\n        /* \"#utility.yul\":1428:1440   */\n      mload\n        /* \"#utility.yul\":1418:1440   */\n      swap1\n      pop\n        /* \"#utility.yul\":1349:1447   */\n      swap2\n      swap1\n      pop\n      jump\t// out\n        /* \"#utility.yul\":1453:1621   */\n    tag_89:\n        /* \"#utility.yul\":1536:1547   */\n      0x00\n        /* \"#utility.yul\":1570:1576   */\n      dup3\n        /* \"#utility.yul\":1565:1568   */\n      dup3\n        /* \"#utility.yul\":1558:1577   */\n      mstore\n        /* \"#utility.yul\":1610:1614   */\n      0x20\n        /* \"#utility.yul\":1605:1608   */\n      dup3\n        /* \"#utility.yul\":1601:1615   */\n      add\n        /* \"#utility.yul\":1586:1615   */\n      swap1\n      pop\n        /* \"#utility.yul\":1453:1621   */\n      swap3\n      swap2\n      pop\n      pop\n      jump\t// out\n        /* \"#utility.yul\":1627:2000   */\n    tag_90:\n        /* \"#utility.yul\":1713:1716   */\n      0x00\n        /* \"#utility.yul\":1741:1779   */\n      tag_136\n        /* \"#utility.yul\":1773:1778   */\n      dup3\n        /* \"#utility.yul\":1741:1779   */\n      tag_88\n      jump\t// in\n    tag_136:\n        /* \"#utility.yul\":1795:1865   */\n      tag_137\n        /* \"#utility.yul\":1858:1864   */\n      dup2\n        /* \"#utility.yul\":1853:1856   */\n      dup6\n        /* \"#utility.yul\":1795:1865   */\n      tag_89\n      jump\t// in\n    tag_137:\n        /* \"#utility.yul\":1788:1865   */\n      swap4\n      pop\n        /* \"#utility.yul\":1874:1939   */\n      tag_138\n        /* \"#utility.yul\":1932:1938   */\n      dup2\n        /* \"#utility.yul\":1927:1930   */\n      dup6\n        /* \"#utility.yul\":1920:1924   */\n      0x20\n        /* \"#utility.yul\":1913:1918   */\n      dup7\n        /* \"#utility.yul\":1909:1925   */\n      add\n        /* \"#utility.yul\":1874:1939   */\n      tag_85\n      jump\t// in\n    tag_138:\n        /* \"#utility.yul\":1964:1993   */\n      tag_139\n        /* \"#utility.yul\":1986:1992   */\n      dup2\n        /* \"#utility.yul\":1964:1993   */\n      tag_86\n      jump\t// in\n    tag_139:\n        /* \"#utility.yul\":1959:1962   */\n      dup5\n        /* \"#utility.yul\":1955:1994   */\n      add\n        /* \"#utility.yul\":1948:1994   */\n      swap2\n      pop\n        /* \"#utility.yul\":1717:2000   */\n      pop\n        /* \"#utility.yul\":1627:2000   */\n      swap3\n      swap2\n      pop\n      pop\n      jump\t// out\n        /* \"#utility.yul\":2006:2315   */\n    tag_22:\n        /* \"#utility.yul\":2117:2121   */\n      0x00\n        /* \"#utility.yul\":2155:2157   */\n      0x20\n        /* \"#utility.yul\":2144:2153   */\n      dup3\n        /* \"#utility.yul\":2140:2158   */\n      add\n        /* \"#utility.yul\":2132:2158   */\n      swap1\n      pop\n        /* \"#utility.yul\":2204:2213   */\n      dup2\n        /* \"#utility.yul\":2198:2202   */\n      dup2\n        /* \"#utility.yul\":2194:2214   */\n      sub\n        /* \"#utility.yul\":2190:2191   */\n      0x00\n        /* \"#utility.yul\":2179:2188   */\n      dup4\n        /* \"#utility.yul\":2175:2192   */\n      add\n        /* \"#utility.yul\":2168:2215   */\n      mstore\n        /* \"#utility.yul\":2232:2308   */\n      tag_141\n        /* \"#utility.yul\":2303:2307   */\n      dup2\n        /* \"#utility.yul\":2294:2300   */\n      dup5\n        /* \"#utility.yul\":2232:2308   */\n      tag_90\n      jump\t// in\n    tag_141:\n        /* \"#utility.yul\":2224:2308   */\n      swap1\n      pop\n        /* \"#utility.yul\":2006:2315   */\n      swap3\n      swap2\n      pop\n      pop\n      jump\t// out\n        /* \"#utility.yul\":2321:2835   */\n    tag_47:\n        /* \"#utility.yul\":2482:2486   */\n      0x00\n        /* \"#utility.yul\":2520:2522   */\n      0x40\n        /* \"#utility.yul\":2509:2518   */\n      dup3\n        /* \"#utility.yul\":2505:2523   */\n      add\n        /* \"#utility.yul\":2497:2523   */\n      swap1\n      pop\n        /* \"#utility.yul\":2569:2578   */\n      dup2\n        /* \"#utility.yul\":2563:2567   */\n      dup2\n        /* \"#utility.yul\":2559:2579   */\n      sub\n        /* \"#utility.yul\":2555:2556   */\n      0x00\n        /* \"#utility.yul\":2544:2553   */\n      dup4\n        /* \"#utility.yul\":2540:2557   */\n      add\n        /* \"#utility.yul\":2533:2580   */\n      mstore\n        /* \"#utility.yul\":2597:2675   */\n      tag_143\n        /* \"#utility.yul\":2670:2674   */\n      dup2\n        /* \"#utility.yul\":2661:2667   */\n      dup6\n        /* \"#utility.yul\":2597:2675   */\n      tag_87\n      jump\t// in\n    tag_143:\n        /* \"#utility.yul\":2589:2675   */\n      swap1\n      pop\n        /* \"#utility.yul\":2722:2731   */\n      dup2\n        /* \"#utility.yul\":2716:2720   */\n      dup2\n        /* \"#utility.yul\":2712:2732   */\n      sub\n        /* \"#utility.yul\":2707:2709   */\n      0x20\n        /* \"#utility.yul\":2696:2705   */\n      dup4\n        /* \"#utility.yul\":2692:2710   */\n      add\n        /* \"#utility.yul\":2685:2733   */\n      mstore\n        /* \"#utility.yul\":2750:2828   */\n      tag_144\n        /* \"#utility.yul\":2823:2827   */\n      dup2\n        /* \"#utility.yul\":2814:2820   */\n      dup5\n        /* \"#utility.yul\":2750:2828   */\n      tag_87\n      jump\t// in\n    tag_144:\n        /* \"#utility.yul\":2742:2828   */\n      swap1\n      pop\n        /* \"#utility.yul\":2321:2835   */\n      swap4\n      swap3\n      pop\n      pop\n      pop\n      jump\t// out\n        /* \"#utility.yul\":2841:2989   */\n    tag_91:\n        /* \"#utility.yul\":2943:2954   */\n      0x00\n        /* \"#utility.yul\":2980:2983   */\n      dup2\n        /* \"#utility.yul\":2965:2983   */\n      swap1\n      pop\n        /* \"#utility.yul\":2841:2989   */\n      swap3\n      swap2\n      pop\n      pop\n      jump\t// out\n        /* \"#utility.yul\":2995:3152   */\n    tag_92:\n        /* \"#utility.yul\":3135:3144   */\n      0x4869204d6f6d2100000000000000000000000000000000000000000000000000\n        /* \"#utility.yul\":3131:3132   */\n      0x00\n        /* \"#utility.yul\":3123:3129   */\n      dup3\n        /* \"#utility.yul\":3119:3133   */\n      add\n        /* \"#utility.yul\":3112:3145   */\n      mstore\n        /* \"#utility.yul\":2995:3152   */\n      pop\n      jump\t// out\n        /* \"#utility.yul\":3158:3558   */\n    tag_93:\n        /* \"#utility.yul\":3318:3321   */\n      0x00\n        /* \"#utility.yul\":3339:3423   */\n      tag_148\n        /* \"#utility.yul\":3421:3422   */\n      0x07\n        /* \"#utility.yul\":3416:3419   */\n      dup4\n        /* \"#utility.yul\":3339:3423   */\n      tag_91\n      jump\t// in\n    tag_148:\n        /* \"#utility.yul\":3332:3423   */\n      swap2\n      pop\n        /* \"#utility.yul\":3432:3525   */\n      tag_149\n        /* \"#utility.yul\":3521:3524   */\n      dup3\n        /* \"#utility.yul\":3432:3525   */\n      tag_92\n      jump\t// in\n    tag_149:\n        /* \"#utility.yul\":3550:3551   */\n      0x07\n        /* \"#utility.yul\":3545:3548   */\n      dup3\n        /* \"#utility.yul\":3541:3552   */\n      add\n        /* \"#utility.yul\":3534:3552   */\n      swap1\n      pop\n        /* \"#utility.yul\":3158:3558   */\n      swap2\n      swap1\n      pop\n      jump\t// out\n        /* \"#utility.yul\":3564:3723   */\n    tag_94:\n        /* \"#utility.yul\":3704:3715   */\n      0x4d69737320596f75210000000000000000000000000000000000000000000000\n        /* \"#utility.yul\":3700:3701   */\n      0x00\n        /* \"#utility.yul\":3692:3698   */\n      dup3\n        /* \"#utility.yul\":3688:3702   */\n      add\n        /* \"#utility.yul\":3681:3716   */\n      mstore\n        /* \"#utility.yul\":3564:3723   */\n      pop\n      jump\t// out\n        /* \"#utility.yul\":3729:4129   */\n    tag_95:\n        /* \"#utility.yul\":3889:3892   */\n      0x00\n        /* \"#utility.yul\":3910:3994   */\n      tag_152\n        /* \"#utility.yul\":3992:3993   */\n      0x09\n        /* \"#utility.yul\":3987:3990   */\n      dup4\n        /* \"#utility.yul\":3910:3994   */\n      tag_91\n      jump\t// in\n    tag_152:\n        /* \"#utility.yul\":3903:3994   */\n      swap2\n      pop\n        /* \"#utility.yul\":4003:4096   */\n      tag_153\n        /* \"#utility.yul\":4092:4095   */\n      dup3\n        /* \"#utility.yul\":4003:4096   */\n      tag_94\n      jump\t// in\n    tag_153:\n        /* \"#utility.yul\":4121:4122   */\n      0x09\n        /* \"#utility.yul\":4116:4119   */\n      dup3\n        /* \"#utility.yul\":4112:4123   */\n      add\n        /* \"#utility.yul\":4105:4123   */\n      swap1\n      pop\n        /* \"#utility.yul\":3729:4129   */\n      swap2\n      swap1\n      pop\n      jump\t// out\n        /* \"#utility.yul\":4135:4782   */\n    tag_53:\n        /* \"#utility.yul\":4421:4424   */\n      0x00\n        /* \"#utility.yul\":4443:4591   */\n      tag_155\n        /* \"#utility.yul\":4587:4590   */\n      dup3\n        /* \"#utility.yul\":4443:4591   */\n      tag_93\n      jump\t// in\n    tag_155:\n        /* \"#utility.yul\":4436:4591   */\n      swap2\n      pop\n        /* \"#utility.yul\":4608:4756   */\n      tag_156\n        /* \"#utility.yul\":4752:4755   */\n      dup3\n        /* \"#utility.yul\":4608:4756   */\n      tag_95\n      jump\t// in\n    tag_156:\n        /* \"#utility.yul\":4601:4756   */\n      swap2\n      pop\n        /* \"#utility.yul\":4773:4776   */\n      dup2\n        /* \"#utility.yul\":4766:4776   */\n      swap1\n      pop\n        /* \"#utility.yul\":4135:4782   */\n      swap2\n      swap1\n      pop\n      jump\t// out\n        /* \"#utility.yul\":4788:4873   */\n    tag_96:\n        /* \"#utility.yul\":4833:4840   */\n      0x00\n        /* \"#utility.yul\":4862:4867   */\n      dup2\n        /* \"#utility.yul\":4851:4867   */\n      swap1\n      pop\n        /* \"#utility.yul\":4788:4873   */\n      swap2\n      swap1\n      pop\n      jump\t// out\n        /* \"#utility.yul\":4879:4965   */\n    tag_97:\n        /* \"#utility.yul\":4914:4921   */\n      0x00\n        /* \"#utility.yul\":4954:4958   */\n      0xff\n        /* \"#utility.yul\":4947:4952   */\n      dup3\n        /* \"#utility.yul\":4943:4959   */\n      and\n        /* \"#utility.yul\":4932:4959   */\n      swap1\n      pop\n        /* \"#utility.yul\":4879:4965   */\n      swap2\n      swap1\n      pop\n      jump\t// out\n        /* \"#utility.yul\":4971:5031   */\n    tag_98:\n        /* \"#utility.yul\":4999:5002   */\n      0x00\n        /* \"#utility.yul\":5020:5025   */\n      dup2\n        /* \"#utility.yul\":5013:5025   */\n      swap1\n      pop\n        /* \"#utility.yul\":4971:5031   */\n      swap2\n      swap1\n      pop\n      jump\t// out\n        /* \"#utility.yul\":5037:5191   */\n    tag_99:\n        /* \"#utility.yul\":5093:5102   */\n      0x00\n        /* \"#utility.yul\":5126:5185   */\n      tag_161\n        /* \"#utility.yul\":5142:5184   */\n      tag_162\n        /* \"#utility.yul\":5151:5183   */\n      tag_163\n        /* \"#utility.yul\":5177:5182   */\n      dup5\n        /* \"#utility.yul\":5151:5183   */\n      tag_96\n      jump\t// in\n    tag_163:\n        /* \"#utility.yul\":5142:5184   */\n      tag_98\n      jump\t// in\n    tag_162:\n        /* \"#utility.yul\":5126:5185   */\n      tag_97\n      jump\t// in\n    tag_161:\n        /* \"#utility.yul\":5113:5185   */\n      swap1\n      pop\n        /* \"#utility.yul\":5037:5191   */\n      swap2\n      swap1\n      pop\n      jump\t// out\n        /* \"#utility.yul\":5197:5340   */\n    tag_100:\n        /* \"#utility.yul\":5290:5333   */\n      tag_165\n        /* \"#utility.yul\":5327:5332   */\n      dup2\n        /* \"#utility.yul\":5290:5333   */\n      tag_99\n      jump\t// in\n    tag_165:\n        /* \"#utility.yul\":5285:5288   */\n      dup3\n        /* \"#utility.yul\":5278:5334   */\n      mstore\n        /* \"#utility.yul\":5197:5340   */\n      pop\n      pop\n      jump\t// out\n        /* \"#utility.yul\":5346:5580   */\n    tag_56:\n        /* \"#utility.yul\":5445:5449   */\n      0x00\n        /* \"#utility.yul\":5483:5485   */\n      0x20\n        /* \"#utility.yul\":5472:5481   */\n      dup3\n        /* \"#utility.yul\":5468:5486   */\n      add\n        /* \"#utility.yul\":5460:5486   */\n      swap1\n      pop\n        /* \"#utility.yul\":5496:5573   */\n      tag_167\n        /* \"#utility.yul\":5570:5571   */\n      0x00\n        /* \"#utility.yul\":5559:5568   */\n      dup4\n        /* \"#utility.yul\":5555:5572   */\n      add\n        /* \"#utility.yul\":5546:5552   */\n      dup5\n        /* \"#utility.yul\":5496:5573   */\n      tag_100\n      jump\t// in\n    tag_167:\n        /* \"#utility.yul\":5346:5580   */\n      swap3\n      swap2\n      pop\n      pop\n      jump\t// out\n        /* \"#utility.yul\":5586:5746   */\n    tag_101:\n        /* \"#utility.yul\":5726:5738   */\n      0x616b68696c6d616e676100000000000000000000000000000000000000000000\n        /* \"#utility.yul\":5722:5723   */\n      0x00\n        /* \"#utility.yul\":5714:5720   */\n      dup3\n        /* \"#utility.yul\":5710:5724   */\n      add\n        /* \"#utility.yul\":5703:5739   */\n      mstore\n        /* \"#utility.yul\":5586:5746   */\n      pop\n      jump\t// out\n        /* \"#utility.yul\":5752:6154   */\n    tag_102:\n        /* \"#utility.yul\":5912:5915   */\n      0x00\n        /* \"#utility.yul\":5933:6018   */\n      tag_170\n        /* \"#utility.yul\":6015:6017   */\n      0x0a\n        /* \"#utility.yul\":6010:6013   */\n      dup4\n        /* \"#utility.yul\":5933:6018   */\n      tag_91\n      jump\t// in\n    tag_170:\n        /* \"#utility.yul\":5926:6018   */\n      swap2\n      pop\n        /* \"#utility.yul\":6027:6120   */\n      tag_171\n        /* \"#utility.yul\":6116:6119   */\n      dup3\n        /* \"#utility.yul\":6027:6120   */\n      tag_101\n      jump\t// in\n    tag_171:\n        /* \"#utility.yul\":6145:6147   */\n      0x0a\n        /* \"#utility.yul\":6140:6143   */\n      dup3\n        /* \"#utility.yul\":6136:6148   */\n      add\n        /* \"#utility.yul\":6129:6148   */\n      swap1\n      pop\n        /* \"#utility.yul\":5752:6154   */\n      swap2\n      swap1\n      pop\n      jump\t// out\n        /* \"#utility.yul\":6160:6541   */\n    tag_59:\n        /* \"#utility.yul\":6345:6348   */\n      0x00\n        /* \"#utility.yul\":6367:6515   */\n      tag_173\n        /* \"#utility.yul\":6511:6514   */\n      dup3\n        /* \"#utility.yul\":6367:6515   */\n      tag_102\n      jump\t// in\n    tag_173:\n        /* \"#utility.yul\":6360:6515   */\n      swap2\n      pop\n        /* \"#utility.yul\":6532:6535   */\n      dup2\n        /* \"#utility.yul\":6525:6535   */\n      swap1\n      pop\n        /* \"#utility.yul\":6160:6541   */\n      swap2\n      swap1\n      pop\n      jump\t// out\n        /* \"#utility.yul\":6547:6622   */\n    tag_103:\n        /* \"#utility.yul\":6580:6586   */\n      0x00\n        /* \"#utility.yul\":6613:6615   */\n      0x40\n        /* \"#utility.yul\":6607:6616   */\n      mload\n        /* \"#utility.yul\":6597:6616   */\n      swap1\n      pop\n        /* \"#utility.yul\":6547:6622   */\n      swap1\n      jump\t// out\n        /* \"#utility.yul\":6628:6745   */\n    tag_104:\n        /* \"#utility.yul\":6737:6738   */\n      0x00\n        /* \"#utility.yul\":6734:6735   */\n      dup1\n        /* \"#utility.yul\":6727:6739   */\n      revert\n        /* \"#utility.yul\":6751:6868   */\n    tag_105:\n        /* \"#utility.yul\":6860:6861   */\n      0x00\n        /* \"#utility.yul\":6857:6858   */\n      dup1\n        /* \"#utility.yul\":6850:6862   */\n      revert\n        /* \"#utility.yul\":6874:6991   */\n    tag_106:\n        /* \"#utility.yul\":6983:6984   */\n      0x00\n        /* \"#utility.yul\":6980:6981   */\n      dup1\n        /* \"#utility.yul\":6973:6985   */\n      revert\n        /* \"#utility.yul\":6997:7114   */\n    tag_107:\n        /* \"#utility.yul\":7106:7107   */\n      0x00\n        /* \"#utility.yul\":7103:7104   */\n      dup1\n        /* \"#utility.yul\":7096:7108   */\n      revert\n        /* \"#utility.yul\":7120:7300   */\n    tag_108:\n        /* \"#utility.yul\":7168:7245   */\n      0x4e487b7100000000000000000000000000000000000000000000000000000000\n        /* \"#utility.yul\":7165:7166   */\n      0x00\n        /* \"#utility.yul\":7158:7246   */\n      mstore\n        /* \"#utility.yul\":7265:7269   */\n      0x41\n        /* \"#utility.yul\":7262:7263   */\n      0x04\n        /* \"#utility.yul\":7255:7270   */\n      mstore\n        /* \"#utility.yul\":7289:7293   */\n      0x24\n        /* \"#utility.yul\":7286:7287   */\n      0x00\n        /* \"#utility.yul\":7279:7294   */\n      revert\n        /* \"#utility.yul\":7306:7587   */\n    tag_109:\n        /* \"#utility.yul\":7389:7416   */\n      tag_181\n        /* \"#utility.yul\":7411:7415   */\n      dup3\n        /* \"#utility.yul\":7389:7416   */\n      tag_86\n      jump\t// in\n    tag_181:\n        /* \"#utility.yul\":7381:7387   */\n      dup2\n        /* \"#utility.yul\":7377:7417   */\n      add\n        /* \"#utility.yul\":7519:7525   */\n      dup2\n        /* \"#utility.yul\":7507:7517   */\n      dup2\n        /* \"#utility.yul\":7504:7526   */\n      lt\n        /* \"#utility.yul\":7483:7501   */\n      0xffffffffffffffff\n        /* \"#utility.yul\":7471:7481   */\n      dup3\n        /* \"#utility.yul\":7468:7502   */\n      gt\n        /* \"#utility.yul\":7465:7527   */\n      or\n        /* \"#utility.yul\":7462:7550   */\n      iszero\n      tag_182\n      jumpi\n        /* \"#utility.yul\":7530:7548   */\n      tag_183\n      tag_108\n      jump\t// in\n    tag_183:\n        /* \"#utility.yul\":7462:7550   */\n    tag_182:\n        /* \"#utility.yul\":7570:7580   */\n      dup1\n        /* \"#utility.yul\":7566:7568   */\n      0x40\n        /* \"#utility.yul\":7559:7581   */\n      mstore\n        /* \"#utility.yul\":7349:7587   */\n      pop\n        /* \"#utility.yul\":7306:7587   */\n      pop\n      pop\n      jump\t// out\n        /* \"#utility.yul\":7593:7722   */\n    tag_110:\n        /* \"#utility.yul\":7627:7633   */\n      0x00\n        /* \"#utility.yul\":7654:7674   */\n      tag_185\n      tag_103\n      jump\t// in\n    tag_185:\n        /* \"#utility.yul\":7644:7674   */\n      swap1\n      pop\n        /* \"#utility.yul\":7683:7716   */\n      tag_186\n        /* \"#utility.yul\":7711:7715   */\n      dup3\n        /* \"#utility.yul\":7703:7709   */\n      dup3\n        /* \"#utility.yul\":7683:7716   */\n      tag_109\n      jump\t// in\n    tag_186:\n        /* \"#utility.yul\":7593:7722   */\n      swap2\n      swap1\n      pop\n      jump\t// out\n        /* \"#utility.yul\":7728:8036   */\n    tag_111:\n        /* \"#utility.yul\":7790:7794   */\n      0x00\n        /* \"#utility.yul\":7880:7898   */\n      0xffffffffffffffff\n        /* \"#utility.yul\":7872:7878   */\n      dup3\n        /* \"#utility.yul\":7869:7899   */\n      gt\n        /* \"#utility.yul\":7866:7922   */\n      iszero\n      tag_188\n      jumpi\n        /* \"#utility.yul\":7902:7920   */\n      tag_189\n      tag_108\n      jump\t// in\n    tag_189:\n        /* \"#utility.yul\":7866:7922   */\n    tag_188:\n        /* \"#utility.yul\":7940:7969   */\n      tag_190\n        /* \"#utility.yul\":7962:7968   */\n      dup3\n        /* \"#utility.yul\":7940:7969   */\n      tag_86\n      jump\t// in\n    tag_190:\n        /* \"#utility.yul\":7932:7969   */\n      swap1\n      pop\n        /* \"#utility.yul\":8024:8028   */\n      0x20\n        /* \"#utility.yul\":8018:8022   */\n      dup2\n        /* \"#utility.yul\":8014:8029   */\n      add\n        /* \"#utility.yul\":8006:8029   */\n      swap1\n      pop\n        /* \"#utility.yul\":7728:8036   */\n      swap2\n      swap1\n      pop\n      jump\t// out\n        /* \"#utility.yul\":8042:8476   */\n    tag_112:\n        /* \"#utility.yul\":8131:8136   */\n      0x00\n        /* \"#utility.yul\":8156:8222   */\n      tag_192\n        /* \"#utility.yul\":8172:8221   */\n      tag_193\n        /* \"#utility.yul\":8214:8220   */\n      dup5\n        /* \"#utility.yul\":8172:8221   */\n      tag_111\n      jump\t// in\n    tag_193:\n        /* \"#utility.yul\":8156:8222   */\n      tag_110\n      jump\t// in\n    tag_192:\n        /* \"#utility.yul\":8147:8222   */\n      swap1\n      pop\n        /* \"#utility.yul\":8245:8251   */\n      dup3\n        /* \"#utility.yul\":8238:8243   */\n      dup2\n        /* \"#utility.yul\":8231:8252   */\n      mstore\n        /* \"#utility.yul\":8283:8287   */\n      0x20\n        /* \"#utility.yul\":8276:8281   */\n      dup2\n        /* \"#utility.yul\":8272:8288   */\n      add\n        /* \"#utility.yul\":8321:8324   */\n      dup5\n        /* \"#utility.yul\":8312:8318   */\n      dup5\n        /* \"#utility.yul\":8307:8310   */\n      dup5\n        /* \"#utility.yul\":8303:8319   */\n      add\n        /* \"#utility.yul\":8300:8325   */\n      gt\n        /* \"#utility.yul\":8297:8409   */\n      iszero\n      tag_194\n      jumpi\n        /* \"#utility.yul\":8328:8407   */\n      tag_195\n      tag_107\n      jump\t// in\n    tag_195:\n        /* \"#utility.yul\":8297:8409   */\n    tag_194:\n        /* \"#utility.yul\":8418:8470   */\n      tag_196\n        /* \"#utility.yul\":8463:8469   */\n      dup5\n        /* \"#utility.yul\":8458:8461   */\n      dup3\n        /* \"#utility.yul\":8453:8456   */\n      dup6\n        /* \"#utility.yul\":8418:8470   */\n      tag_85\n      jump\t// in\n    tag_196:\n        /* \"#utility.yul\":8137:8476   */\n      pop\n        /* \"#utility.yul\":8042:8476   */\n      swap4\n      swap3\n      pop\n      pop\n      pop\n      jump\t// out\n        /* \"#utility.yul\":8496:8851   */\n    tag_113:\n        /* \"#utility.yul\":8563:8568   */\n      0x00\n        /* \"#utility.yul\":8612:8615   */\n      dup3\n        /* \"#utility.yul\":8605:8609   */\n      0x1f\n        /* \"#utility.yul\":8597:8603   */\n      dup4\n        /* \"#utility.yul\":8593:8610   */\n      add\n        /* \"#utility.yul\":8589:8616   */\n      slt\n        /* \"#utility.yul\":8579:8701   */\n      tag_198\n      jumpi\n        /* \"#utility.yul\":8620:8699   */\n      tag_199\n      tag_106\n      jump\t// in\n    tag_199:\n        /* \"#utility.yul\":8579:8701   */\n    tag_198:\n        /* \"#utility.yul\":8730:8736   */\n      dup2\n        /* \"#utility.yul\":8724:8737   */\n      mload\n        /* \"#utility.yul\":8755:8845   */\n      tag_200\n        /* \"#utility.yul\":8841:8844   */\n      dup5\n        /* \"#utility.yul\":8833:8839   */\n      dup3\n        /* \"#utility.yul\":8826:8830   */\n      0x20\n        /* \"#utility.yul\":8818:8824   */\n      dup7\n        /* \"#utility.yul\":8814:8831   */\n      add\n        /* \"#utility.yul\":8755:8845   */\n      tag_112\n      jump\t// in\n    tag_200:\n        /* \"#utility.yul\":8746:8845   */\n      swap2\n      pop\n        /* \"#utility.yul\":8569:8851   */\n      pop\n        /* \"#utility.yul\":8496:8851   */\n      swap3\n      swap2\n      pop\n      pop\n      jump\t// out\n        /* \"#utility.yul\":8857:9381   */\n    tag_66:\n        /* \"#utility.yul\":8937:8943   */\n      0x00\n        /* \"#utility.yul\":8986:8988   */\n      0x20\n        /* \"#utility.yul\":8974:8983   */\n      dup3\n        /* \"#utility.yul\":8965:8972   */\n      dup5\n        /* \"#utility.yul\":8961:8984   */\n      sub\n        /* \"#utility.yul\":8957:8989   */\n      slt\n        /* \"#utility.yul\":8954:9073   */\n      iszero\n      tag_202\n      jumpi\n        /* \"#utility.yul\":8992:9071   */\n      tag_203\n      tag_104\n      jump\t// in\n    tag_203:\n        /* \"#utility.yul\":8954:9073   */\n    tag_202:\n        /* \"#utility.yul\":9133:9134   */\n      0x00\n        /* \"#utility.yul\":9122:9131   */\n      dup3\n        /* \"#utility.yul\":9118:9135   */\n      add\n        /* \"#utility.yul\":9112:9136   */\n      mload\n        /* \"#utility.yul\":9163:9181   */\n      0xffffffffffffffff\n        /* \"#utility.yul\":9155:9161   */\n      dup2\n        /* \"#utility.yul\":9152:9182   */\n      gt\n        /* \"#utility.yul\":9149:9266   */\n      iszero\n      tag_204\n      jumpi\n        /* \"#utility.yul\":9185:9264   */\n      tag_205\n      tag_105\n      jump\t// in\n    tag_205:\n        /* \"#utility.yul\":9149:9266   */\n    tag_204:\n        /* \"#utility.yul\":9290:9364   */\n      tag_206\n        /* \"#utility.yul\":9356:9363   */\n      dup5\n        /* \"#utility.yul\":9347:9353   */\n      dup3\n        /* \"#utility.yul\":9336:9345   */\n      dup6\n        /* \"#utility.yul\":9332:9354   */\n      add\n        /* \"#utility.yul\":9290:9364   */\n      tag_113\n      jump\t// in\n    tag_206:\n        /* \"#utility.yul\":9280:9364   */\n      swap2\n      pop\n        /* \"#utility.yul\":9083:9374   */\n      pop\n        /* \"#utility.yul\":8857:9381   */\n      swap3\n      swap2\n      pop\n      pop\n      jump\t// out\n        /* \"#utility.yul\":9387:9753   */\n    tag_114:\n        /* \"#utility.yul\":9529:9532   */\n      0x00\n        /* \"#utility.yul\":9550:9617   */\n      tag_208\n        /* \"#utility.yul\":9614:9616   */\n      0x0a\n        /* \"#utility.yul\":9609:9612   */\n      dup4\n        /* \"#utility.yul\":9550:9617   */\n      tag_84\n      jump\t// in\n    tag_208:\n        /* \"#utility.yul\":9543:9617   */\n      swap2\n      pop\n        /* \"#utility.yul\":9626:9719   */\n      tag_209\n        /* \"#utility.yul\":9715:9718   */\n      dup3\n        /* \"#utility.yul\":9626:9719   */\n      tag_101\n      jump\t// in\n    tag_209:\n        /* \"#utility.yul\":9744:9746   */\n      0x20\n        /* \"#utility.yul\":9739:9742   */\n      dup3\n        /* \"#utility.yul\":9735:9747   */\n      add\n        /* \"#utility.yul\":9728:9747   */\n      swap1\n      pop\n        /* \"#utility.yul\":9387:9753   */\n      swap2\n      swap1\n      pop\n      jump\t// out\n        /* \"#utility.yul\":9759:9920   */\n    tag_115:\n        /* \"#utility.yul\":9899:9912   */\n      0x6e696b68696c6d616e6761000000000000000000000000000000000000000000\n        /* \"#utility.yul\":9895:9896   */\n      0x00\n        /* \"#utility.yul\":9887:9893   */\n      dup3\n        /* \"#utility.yul\":9883:9897   */\n      add\n        /* \"#utility.yul\":9876:9913   */\n      mstore\n        /* \"#utility.yul\":9759:9920   */\n      pop\n      jump\t// out\n        /* \"#utility.yul\":9926:10292   */\n    tag_116:\n        /* \"#utility.yul\":10068:10071   */\n      0x00\n        /* \"#utility.yul\":10089:10156   */\n      tag_212\n        /* \"#utility.yul\":10153:10155   */\n      0x0b\n        /* \"#utility.yul\":10148:10151   */\n      dup4\n        /* \"#utility.yul\":10089:10156   */\n      tag_84\n      jump\t// in\n    tag_212:\n        /* \"#utility.yul\":10082:10156   */\n      swap2\n      pop\n        /* \"#utility.yul\":10165:10258   */\n      tag_213\n        /* \"#utility.yul\":10254:10257   */\n      dup3\n        /* \"#utility.yul\":10165:10258   */\n      tag_115\n      jump\t// in\n    tag_213:\n        /* \"#utility.yul\":10283:10285   */\n      0x20\n        /* \"#utility.yul\":10278:10281   */\n      dup3\n        /* \"#utility.yul\":10274:10286   */\n      add\n        /* \"#utility.yul\":10267:10286   */\n      swap1\n      pop\n        /* \"#utility.yul\":9926:10292   */\n      swap2\n      swap1\n      pop\n      jump\t// out\n        /* \"#utility.yul\":10298:11024   */\n    tag_69:\n        /* \"#utility.yul\":10565:10569   */\n      0x00\n        /* \"#utility.yul\":10603:10605   */\n      0x40\n        /* \"#utility.yul\":10592:10601   */\n      dup3\n        /* \"#utility.yul\":10588:10606   */\n      add\n        /* \"#utility.yul\":10580:10606   */\n      swap1\n      pop\n        /* \"#utility.yul\":10652:10661   */\n      dup2\n        /* \"#utility.yul\":10646:10650   */\n      dup2\n        /* \"#utility.yul\":10642:10662   */\n      sub\n        /* \"#utility.yul\":10638:10639   */\n      0x00\n        /* \"#utility.yul\":10627:10636   */\n      dup4\n        /* \"#utility.yul\":10623:10640   */\n      add\n        /* \"#utility.yul\":10616:10663   */\n      mstore\n        /* \"#utility.yul\":10680:10811   */\n      tag_215\n        /* \"#utility.yul\":10806:10810   */\n      dup2\n        /* \"#utility.yul\":10680:10811   */\n      tag_114\n      jump\t// in\n    tag_215:\n        /* \"#utility.yul\":10672:10811   */\n      swap1\n      pop\n        /* \"#utility.yul\":10858:10867   */\n      dup2\n        /* \"#utility.yul\":10852:10856   */\n      dup2\n        /* \"#utility.yul\":10848:10868   */\n      sub\n        /* \"#utility.yul\":10843:10845   */\n      0x20\n        /* \"#utility.yul\":10832:10841   */\n      dup4\n        /* \"#utility.yul\":10828:10846   */\n      add\n        /* \"#utility.yul\":10821:10869   */\n      mstore\n        /* \"#utility.yul\":10886:11017   */\n      tag_216\n        /* \"#utility.yul\":11012:11016   */\n      dup2\n        /* \"#utility.yul\":10886:11017   */\n      tag_116\n      jump\t// in\n    tag_216:\n        /* \"#utility.yul\":10878:11017   */\n      swap1\n      pop\n        /* \"#utility.yul\":10298:11024   */\n      swap2\n      swap1\n      pop\n      jump\t// out\n        /* \"#utility.yul\":11030:11432   */\n    tag_117:\n        /* \"#utility.yul\":11190:11193   */\n      0x00\n        /* \"#utility.yul\":11211:11296   */\n      tag_218\n        /* \"#utility.yul\":11293:11295   */\n      0x0b\n        /* \"#utility.yul\":11288:11291   */\n      dup4\n        /* \"#utility.yul\":11211:11296   */\n      tag_91\n      jump\t// in\n    tag_218:\n        /* \"#utility.yul\":11204:11296   */\n      swap2\n      pop\n        /* \"#utility.yul\":11305:11398   */\n      tag_219\n        /* \"#utility.yul\":11394:11397   */\n      dup3\n        /* \"#utility.yul\":11305:11398   */\n      tag_115\n      jump\t// in\n    tag_219:\n        /* \"#utility.yul\":11423:11425   */\n      0x0b\n        /* \"#utility.yul\":11418:11421   */\n      dup3\n        /* \"#utility.yul\":11414:11426   */\n      add\n        /* \"#utility.yul\":11407:11426   */\n      swap1\n      pop\n        /* \"#utility.yul\":11030:11432   */\n      swap2\n      swap1\n      pop\n      jump\t// out\n        /* \"#utility.yul\":11438:12085   */\n    tag_75:\n        /* \"#utility.yul\":11724:11727   */\n      0x00\n        /* \"#utility.yul\":11746:11894   */\n      tag_221\n        /* \"#utility.yul\":11890:11893   */\n      dup3\n        /* \"#utility.yul\":11746:11894   */\n      tag_102\n      jump\t// in\n    tag_221:\n        /* \"#utility.yul\":11739:11894   */\n      swap2\n      pop\n        /* \"#utility.yul\":11911:12059   */\n      tag_222\n        /* \"#utility.yul\":12055:12058   */\n      dup3\n        /* \"#utility.yul\":11911:12059   */\n      tag_117\n      jump\t// in\n    tag_222:\n        /* \"#utility.yul\":11904:12059   */\n      swap2\n      pop\n        /* \"#utility.yul\":12076:12079   */\n      dup2\n        /* \"#utility.yul\":12069:12079   */\n      swap1\n      pop\n        /* \"#utility.yul\":11438:12085   */\n      swap2\n      swap1\n      pop\n      jump\t// out\n        /* \"#utility.yul\":12091:12944   */\n    tag_79:\n        /* \"#utility.yul\":12190:12196   */\n      0x00\n        /* \"#utility.yul\":12198:12204   */\n      dup1\n        /* \"#utility.yul\":12247:12249   */\n      0x40\n        /* \"#utility.yul\":12235:12244   */\n      dup4\n        /* \"#utility.yul\":12226:12233   */\n      dup6\n        /* \"#utility.yul\":12222:12245   */\n      sub\n        /* \"#utility.yul\":12218:12250   */\n      slt\n        /* \"#utility.yul\":12215:12334   */\n      iszero\n      tag_224\n      jumpi\n        /* \"#utility.yul\":12253:12332   */\n      tag_225\n      tag_104\n      jump\t// in\n    tag_225:\n        /* \"#utility.yul\":12215:12334   */\n    tag_224:\n        /* \"#utility.yul\":12394:12395   */\n      0x00\n        /* \"#utility.yul\":12383:12392   */\n      dup4\n        /* \"#utility.yul\":12379:12396   */\n      add\n        /* \"#utility.yul\":12373:12397   */\n      mload\n        /* \"#utility.yul\":12424:12442   */\n      0xffffffffffffffff\n        /* \"#utility.yul\":12416:12422   */\n      dup2\n        /* \"#utility.yul\":12413:12443   */\n      gt\n        /* \"#utility.yul\":12410:12527   */\n      iszero\n      tag_226\n      jumpi\n        /* \"#utility.yul\":12446:12525   */\n      tag_227\n      tag_105\n      jump\t// in\n    tag_227:\n        /* \"#utility.yul\":12410:12527   */\n    tag_226:\n        /* \"#utility.yul\":12551:12625   */\n      tag_228\n        /* \"#utility.yul\":12617:12624   */\n      dup6\n        /* \"#utility.yul\":12608:12614   */\n      dup3\n        /* \"#utility.yul\":12597:12606   */\n      dup7\n        /* \"#utility.yul\":12593:12615   */\n      add\n        /* \"#utility.yul\":12551:12625   */\n      tag_113\n      jump\t// in\n    tag_228:\n        /* \"#utility.yul\":12541:12625   */\n      swap3\n      pop\n        /* \"#utility.yul\":12344:12635   */\n      pop\n        /* \"#utility.yul\":12695:12697   */\n      0x20\n        /* \"#utility.yul\":12684:12693   */\n      dup4\n        /* \"#utility.yul\":12680:12698   */\n      add\n        /* \"#utility.yul\":12674:12699   */\n      mload\n        /* \"#utility.yul\":12726:12744   */\n      0xffffffffffffffff\n        /* \"#utility.yul\":12718:12724   */\n      dup2\n        /* \"#utility.yul\":12715:12745   */\n      gt\n        /* \"#utility.yul\":12712:12829   */\n      iszero\n      tag_229\n      jumpi\n        /* \"#utility.yul\":12748:12827   */\n      tag_230\n      tag_105\n      jump\t// in\n    tag_230:\n        /* \"#utility.yul\":12712:12829   */\n    tag_229:\n        /* \"#utility.yul\":12853:12927   */\n      tag_231\n        /* \"#utility.yul\":12919:12926   */\n      dup6\n        /* \"#utility.yul\":12910:12916   */\n      dup3\n        /* \"#utility.yul\":12899:12908   */\n      dup7\n        /* \"#utility.yul\":12895:12917   */\n      add\n        /* \"#utility.yul\":12853:12927   */\n      tag_113\n      jump\t// in\n    tag_231:\n        /* \"#utility.yul\":12843:12927   */\n      swap2\n      pop\n        /* \"#utility.yul\":12645:12937   */\n      pop\n        /* \"#utility.yul\":12091:12944   */\n      swap3\n      pop\n      swap3\n      swap1\n      pop\n      jump\t// out\n        /* \"#utility.yul\":12950:13369   */\n    tag_82:\n        /* \"#utility.yul\":13116:13120   */\n      0x00\n        /* \"#utility.yul\":13154:13156   */\n      0x20\n        /* \"#utility.yul\":13143:13152   */\n      dup3\n        /* \"#utility.yul\":13139:13157   */\n      add\n        /* \"#utility.yul\":13131:13157   */\n      swap1\n      pop\n        /* \"#utility.yul\":13203:13212   */\n      dup2\n        /* \"#utility.yul\":13197:13201   */\n      dup2\n        /* \"#utility.yul\":13193:13213   */\n      sub\n        /* \"#utility.yul\":13189:13190   */\n      0x00\n        /* \"#utility.yul\":13178:13187   */\n      dup4\n        /* \"#utility.yul\":13174:13191   */\n      add\n        /* \"#utility.yul\":13167:13214   */\n      mstore\n        /* \"#utility.yul\":13231:13362   */\n      tag_233\n        /* \"#utility.yul\":13357:13361   */\n      dup2\n        /* \"#utility.yul\":13231:13362   */\n      tag_114\n      jump\t// in\n    tag_233:\n        /* \"#utility.yul\":13223:13362   */\n      swap1\n      pop\n        /* \"#utility.yul\":12950:13369   */\n      swap2\n      swap1\n      pop\n      jump\t// out\n\n    auxdata: 0xa26469706673582212206957405ea23940b0e45417b4ecbd9cf8c523857501738bc871dbeb8595f112d164736f6c63430008120033\n}\n",
				"bytecode": {
					"linkReferences": {},
					"object": "608060405234801561001057600080fd5b506109f8806100206000396000f3fe608060405234801561001057600080fd5b50600436106100a95760003560e01c8063929b807e11610071578063929b807e14610144578063a6dc49b814610162578063a77b036014610180578063b47487181461019e578063c452d79b146101bc578063ed5df365146101db576100a9565b8063114a7610146100ae57806315889d1a146100cc5780632085f4b9146100ea578063406ec9f21461010857806360ee46c314610126575b600080fd5b6100b66101f9565b6040516100c39190610461565b60405180910390f35b6100d461021e565b6040516100e191906104d8565b60405180910390f35b6100f261024c565b6040516100ff91906104d8565b60405180910390f35b610110610277565b60405161011d91906104d8565b60405180910390f35b61012e6102ba565b60405161013b9190610461565b60405180910390f35b61014c6102cf565b6040516101599190610461565b60405180910390f35b61016a6102f7565b60405161017791906104d8565b60405180910390f35b610188610322565b6040516101959190610461565b60405180910390f35b6101a661034a565b6040516101b391906104d8565b60405180910390f35b6101c4610375565b6040516101d29291906104fa565b60405180910390f35b6101e36103a6565b6040516101f091906104d8565b60405180910390f35b606060405160200161020a906105d4565b604051602081830303815290604052905090565b6060600060016040516020016102349190610646565b60405160208183030381529060405290508091505090565b6060600060405160200161025f906106ad565b60405160208183030381529060405290508091505090565b606060006040518060400160405280600a81526020017f616b68696c6d616e67610000000000000000000000000000000000000000000081525090508091505090565b606060006102c661034a565b90508091505090565b606060006102db61034a565b8060200190518101906102ee91906107fc565b90508091505090565b6060600060405160200161030a906108b4565b60405160208183030381529060405290508091505090565b6060600061032e6103a6565b80602001905181019061034191906107fc565b90508091505090565b6060600060405160200161035d9061090a565b60405160208183030381529060405290508091505090565b6060806000806103836102f7565b806020019051810190610396919061092a565b9150915081819350935050509091565b606060006040516020016103b9906109a2565b60405160208183030381529060405290508091505090565b600081519050919050565b600082825260208201905092915050565b60005b8381101561040b5780820151818401526020810190506103f0565b60008484015250505050565b6000601f19601f8301169050919050565b6000610433826103d1565b61043d81856103dc565b935061044d8185602086016103ed565b61045681610417565b840191505092915050565b6000602082019050818103600083015261047b8184610428565b905092915050565b600081519050919050565b600082825260208201905092915050565b60006104aa82610483565b6104b4818561048e565b93506104c48185602086016103ed565b6104cd81610417565b840191505092915050565b600060208201905081810360008301526104f2818461049f565b905092915050565b600060408201905081810360008301526105148185610428565b905081810360208301526105288184610428565b90509392505050565b600081905092915050565b7f4869204d6f6d2100000000000000000000000000000000000000000000000000600082015250565b6000610572600783610531565b915061057d8261053c565b600782019050919050565b7f4d69737320596f75210000000000000000000000000000000000000000000000600082015250565b60006105be600983610531565b91506105c982610588565b600982019050919050565b60006105df82610565565b91506105ea826105b1565b9150819050919050565b6000819050919050565b600060ff82169050919050565b6000819050919050565b600061063061062b610626846105f4565b61060b565b6105fe565b9050919050565b61064081610615565b82525050565b600060208201905061065b6000830184610637565b92915050565b7f616b68696c6d616e676100000000000000000000000000000000000000000000600082015250565b6000610697600a83610531565b91506106a282610661565b600a82019050919050565b60006106b88261068a565b9150819050919050565b6000604051905090565b600080fd5b600080fd5b600080fd5b600080fd5b7f4e487b7100000000000000000000000000000000000000000000000000000000600052604160045260246000fd5b61071882610417565b810181811067ffffffffffffffff82111715610737576107366106e0565b5b80604052505050565b600061074a6106c2565b9050610756828261070f565b919050565b600067ffffffffffffffff821115610776576107756106e0565b5b61077f82610417565b9050602081019050919050565b600061079f61079a8461075b565b610740565b9050828152602081018484840111156107bb576107ba6106db565b5b6107c68482856103ed565b509392505050565b600082601f8301126107e3576107e26106d6565b5b81516107f384826020860161078c565b91505092915050565b600060208284031215610812576108116106cc565b5b600082015167ffffffffffffffff8111156108305761082f6106d1565b5b61083c848285016107ce565b91505092915050565b6000610852600a836103dc565b915061085d82610661565b602082019050919050565b7f6e696b68696c6d616e6761000000000000000000000000000000000000000000600082015250565b600061089e600b836103dc565b91506108a982610868565b602082019050919050565b600060408201905081810360008301526108cd81610845565b905081810360208301526108e081610891565b9050919050565b60006108f4600b83610531565b91506108ff82610868565b600b82019050919050565b60006109158261068a565b9150610920826108e7565b9150819050919050565b60008060408385031215610941576109406106cc565b5b600083015167ffffffffffffffff81111561095f5761095e6106d1565b5b61096b858286016107ce565b925050602083015167ffffffffffffffff81111561098c5761098b6106d1565b5b610998858286016107ce565b9150509250929050565b600060208201905081810360008301526109bb81610845565b905091905056fea26469706673582212206957405ea23940b0e45417b4ecbd9cf8c523857501738bc871dbeb8595f112d164736f6c63430008120033",
					"opcodes": "PUSH1 0x80 PUSH1 0x40 MSTORE CALLVALUE DUP1 ISZERO PUSH2 0x10 JUMPI PUSH1 0x0 DUP1 REVERT JUMPDEST POP PUSH2 0x9F8 DUP1 PUSH2 0x20 PUSH1 0x0 CODECOPY PUSH1 0x0 RETURN INVALID PUSH1 0x80 PUSH1 0x40 MSTORE CALLVALUE DUP1 ISZERO PUSH2 0x10 JUMPI PUSH1 0x0 DUP1 REVERT JUMPDEST POP PUSH1 0x4 CALLDATASIZE LT PUSH2 0xA9 JUMPI PUSH1 0x0 CALLDATALOAD PUSH1 0xE0 SHR DUP1 PUSH4 0x929B807E GT PUSH2 0x71 JUMPI DUP1 PUSH4 0x929B807E EQ PUSH2 0x144 JUMPI DUP1 PUSH4 0xA6DC49B8 EQ PUSH2 0x162 JUMPI DUP1 PUSH4 0xA77B0360 EQ PUSH2 0x180 JUMPI DUP1 PUSH4 0xB4748718 EQ PUSH2 0x19E JUMPI DUP1 PUSH4 0xC452D79B EQ PUSH2 0x1BC JUMPI DUP1 PUSH4 0xED5DF365 EQ PUSH2 0x1DB JUMPI PUSH2 0xA9 JUMP JUMPDEST DUP1 PUSH4 0x114A7610 EQ PUSH2 0xAE JUMPI DUP1 PUSH4 0x15889D1A EQ PUSH2 0xCC JUMPI DUP1 PUSH4 0x2085F4B9 EQ PUSH2 0xEA JUMPI DUP1 PUSH4 0x406EC9F2 EQ PUSH2 0x108 JUMPI DUP1 PUSH4 0x60EE46C3 EQ PUSH2 0x126 JUMPI JUMPDEST PUSH1 0x0 DUP1 REVERT JUMPDEST PUSH2 0xB6 PUSH2 0x1F9 JUMP JUMPDEST PUSH1 0x40 MLOAD PUSH2 0xC3 SWAP2 SWAP1 PUSH2 0x461 JUMP JUMPDEST PUSH1 0x40 MLOAD DUP1 SWAP2 SUB SWAP1 RETURN JUMPDEST PUSH2 0xD4 PUSH2 0x21E JUMP JUMPDEST PUSH1 0x40 MLOAD PUSH2 0xE1 SWAP2 SWAP1 PUSH2 0x4D8 JUMP JUMPDEST PUSH1 0x40 MLOAD DUP1 SWAP2 SUB SWAP1 RETURN JUMPDEST PUSH2 0xF2 PUSH2 0x24C JUMP JUMPDEST PUSH1 0x40 MLOAD PUSH2 0xFF SWAP2 SWAP1 PUSH2 0x4D8 JUMP JUMPDEST PUSH1 0x40 MLOAD DUP1 SWAP2 SUB SWAP1 RETURN JUMPDEST PUSH2 0x110 PUSH2 0x277 JUMP JUMPDEST PUSH1 0x40 MLOAD PUSH2 0x11D SWAP2 SWAP1 PUSH2 0x4D8 JUMP JUMPDEST PUSH1 0x40 MLOAD DUP1 SWAP2 SUB SWAP1 RETURN JUMPDEST PUSH2 0x12E PUSH2 0x2BA JUMP JUMPDEST PUSH1 0x40 MLOAD PUSH2 0x13B SWAP2 SWAP1 PUSH2 0x461 JUMP JUMPDEST PUSH1 0x40 MLOAD DUP1 SWAP2 SUB SWAP1 RETURN JUMPDEST PUSH2 0x14C PUSH2 0x2CF JUMP JUMPDEST PUSH1 0x40 MLOAD PUSH2 0x159 SWAP2 SWAP1 PUSH2 0x461 JUMP JUMPDEST PUSH1 0x40 MLOAD DUP1 SWAP2 SUB SWAP1 RETURN JUMPDEST PUSH2 0x16A PUSH2 0x2F7 JUMP JUMPDEST PUSH1 0x40 MLOAD PUSH2 0x177 SWAP2 SWAP1 PUSH2 0x4D8 JUMP JUMPDEST PUSH1 0x40 MLOAD DUP1 SWAP2 SUB SWAP1 RETURN JUMPDEST PUSH2 0x188 PUSH2 0x322 JUMP JUMPDEST PUSH1 0x40 MLOAD PUSH2 0x195 SWAP2 SWAP1 PUSH2 0x461 JUMP JUMPDEST PUSH1 0x40 MLOAD DUP1 SWAP2 SUB SWAP1 RETURN JUMPDEST PUSH2 0x1A6 PUSH2 0x34A JUMP JUMPDEST PUSH1 0x40 MLOAD PUSH2 0x1B3 SWAP2 SWAP1 PUSH2 0x4D8 JUMP JUMPDEST PUSH1 0x40 MLOAD DUP1 SWAP2 SUB SWAP1 RETURN JUMPDEST PUSH2 0x1C4 PUSH2 0x375 JUMP JUMPDEST PUSH1 0x40 MLOAD PUSH2 0x1D2 SWAP3 SWAP2 SWAP1 PUSH2 0x4FA JUMP JUMPDEST PUSH1 0x40 MLOAD DUP1 SWAP2 SUB SWAP1 RETURN JUMPDEST PUSH2 0x1E3 PUSH2 0x3A6 JUMP JUMPDEST PUSH1 0x40 MLOAD PUSH2 0x1F0 SWAP2 SWAP1 PUSH2 0x4D8 JUMP JUMPDEST PUSH1 0x40 MLOAD DUP1 SWAP2 SUB SWAP1 RETURN JUMPDEST PUSH1 0x60 PUSH1 0x40 MLOAD PUSH1 0x20 ADD PUSH2 0x20A SWAP1 PUSH2 0x5D4 JUMP JUMPDEST PUSH1 0x40 MLOAD PUSH1 0x20 DUP2 DUP4 SUB SUB DUP2 MSTORE SWAP1 PUSH1 0x40 MSTORE SWAP1 POP SWAP1 JUMP JUMPDEST PUSH1 0x60 PUSH1 0x0 PUSH1 0x1 PUSH1 0x40 MLOAD PUSH1 0x20 ADD PUSH2 0x234 SWAP2 SWAP1 PUSH2 0x646 JUMP JUMPDEST PUSH1 0x40 MLOAD PUSH1 0x20 DUP2 DUP4 SUB SUB DUP2 MSTORE SWAP1 PUSH1 0x40 MSTORE SWAP1 POP DUP1 SWAP2 POP POP SWAP1 JUMP JUMPDEST PUSH1 0x60 PUSH1 0x0 PUSH1 0x40 MLOAD PUSH1 0x20 ADD PUSH2 0x25F SWAP1 PUSH2 0x6AD JUMP JUMPDEST PUSH1 0x40 MLOAD PUSH1 0x20 DUP2 DUP4 SUB SUB DUP2 MSTORE SWAP1 PUSH1 0x40 MSTORE SWAP1 POP DUP1 SWAP2 POP POP SWAP1 JUMP JUMPDEST PUSH1 0x60 PUSH1 0x0 PUSH1 0x40 MLOAD DUP1 PUSH1 0x40 ADD PUSH1 0x40 MSTORE DUP1 PUSH1 0xA DUP2 MSTORE PUSH1 0x20 ADD PUSH32 0x616B68696C6D616E676100000000000000000000000000000000000000000000 DUP2 MSTORE POP SWAP1 POP DUP1 SWAP2 POP POP SWAP1 JUMP JUMPDEST PUSH1 0x60 PUSH1 0x0 PUSH2 0x2C6 PUSH2 0x34A JUMP JUMPDEST SWAP1 POP DUP1 SWAP2 POP POP SWAP1 JUMP JUMPDEST PUSH1 0x60 PUSH1 0x0 PUSH2 0x2DB PUSH2 0x34A JUMP JUMPDEST DUP1 PUSH1 0x20 ADD SWAP1 MLOAD DUP2 ADD SWAP1 PUSH2 0x2EE SWAP2 SWAP1 PUSH2 0x7FC JUMP JUMPDEST SWAP1 POP DUP1 SWAP2 POP POP SWAP1 JUMP JUMPDEST PUSH1 0x60 PUSH1 0x0 PUSH1 0x40 MLOAD PUSH1 0x20 ADD PUSH2 0x30A SWAP1 PUSH2 0x8B4 JUMP JUMPDEST PUSH1 0x40 MLOAD PUSH1 0x20 DUP2 DUP4 SUB SUB DUP2 MSTORE SWAP1 PUSH1 0x40 MSTORE SWAP1 POP DUP1 SWAP2 POP POP SWAP1 JUMP JUMPDEST PUSH1 0x60 PUSH1 0x0 PUSH2 0x32E PUSH2 0x3A6 JUMP JUMPDEST DUP1 PUSH1 0x20 ADD SWAP1 MLOAD DUP2 ADD SWAP1 PUSH2 0x341 SWAP2 SWAP1 PUSH2 0x7FC JUMP JUMPDEST SWAP1 POP DUP1 SWAP2 POP POP SWAP1 JUMP JUMPDEST PUSH1 0x60 PUSH1 0x0 PUSH1 0x40 MLOAD PUSH1 0x20 ADD PUSH2 0x35D SWAP1 PUSH2 0x90A JUMP JUMPDEST PUSH1 0x40 MLOAD PUSH1 0x20 DUP2 DUP4 SUB SUB DUP2 MSTORE SWAP1 PUSH1 0x40 MSTORE SWAP1 POP DUP1 SWAP2 POP POP SWAP1 JUMP JUMPDEST PUSH1 0x60 DUP1 PUSH1 0x0 DUP1 PUSH2 0x383 PUSH2 0x2F7 JUMP JUMPDEST DUP1 PUSH1 0x20 ADD SWAP1 MLOAD DUP2 ADD SWAP1 PUSH2 0x396 SWAP2 SWAP1 PUSH2 0x92A JUMP JUMPDEST SWAP2 POP SWAP2 POP DUP2 DUP2 SWAP4 POP SWAP4 POP POP POP SWAP1 SWAP2 JUMP JUMPDEST PUSH1 0x60 PUSH1 0x0 PUSH1 0x40 MLOAD PUSH1 0x20 ADD PUSH2 0x3B9 SWAP1 PUSH2 0x9A2 JUMP JUMPDEST PUSH1 0x40 MLOAD PUSH1 0x20 DUP2 DUP4 SUB SUB DUP2 MSTORE SWAP1 PUSH1 0x40 MSTORE SWAP1 POP DUP1 SWAP2 POP POP SWAP1 JUMP JUMPDEST PUSH1 0x0 DUP2 MLOAD SWAP1 POP SWAP2 SWAP1 POP JUMP JUMPDEST PUSH1 0x0 DUP3 DUP3 MSTORE PUSH1 0x20 DUP3 ADD SWAP1 POP SWAP3 SWAP2 POP POP JUMP JUMPDEST PUSH1 0x0 JUMPDEST DUP4 DUP2 LT ISZERO PUSH2 0x40B JUMPI DUP1 DUP3 ADD MLOAD DUP2 DUP5 ADD MSTORE PUSH1 0x20 DUP2 ADD SWAP1 POP PUSH2 0x3F0 JUMP JUMPDEST PUSH1 0x0 DUP5 DUP5 ADD MSTORE POP POP POP POP JUMP JUMPDEST PUSH1 0x0 PUSH1 0x1F NOT PUSH1 0x1F DUP4 ADD AND SWAP1 POP SWAP2 SWAP1 POP JUMP JUMPDEST PUSH1 0x0 PUSH2 0x433 DUP3 PUSH2 0x3D1 JUMP JUMPDEST PUSH2 0x43D DUP2 DUP6 PUSH2 0x3DC JUMP JUMPDEST SWAP4 POP PUSH2 0x44D DUP2 DUP6 PUSH1 0x20 DUP7 ADD PUSH2 0x3ED JUMP JUMPDEST PUSH2 0x456 DUP2 PUSH2 0x417 JUMP JUMPDEST DUP5 ADD SWAP2 POP POP SWAP3 SWAP2 POP POP JUMP JUMPDEST PUSH1 0x0 PUSH1 0x20 DUP3 ADD SWAP1 POP DUP2 DUP2 SUB PUSH1 0x0 DUP4 ADD MSTORE PUSH2 0x47B DUP2 DUP5 PUSH2 0x428 JUMP JUMPDEST SWAP1 POP SWAP3 SWAP2 POP POP JUMP JUMPDEST PUSH1 0x0 DUP2 MLOAD SWAP1 POP SWAP2 SWAP1 POP JUMP JUMPDEST PUSH1 0x0 DUP3 DUP3 MSTORE PUSH1 0x20 DUP3 ADD SWAP1 POP SWAP3 SWAP2 POP POP JUMP JUMPDEST PUSH1 0x0 PUSH2 0x4AA DUP3 PUSH2 0x483 JUMP JUMPDEST PUSH2 0x4B4 DUP2 DUP6 PUSH2 0x48E JUMP JUMPDEST SWAP4 POP PUSH2 0x4C4 DUP2 DUP6 PUSH1 0x20 DUP7 ADD PUSH2 0x3ED JUMP JUMPDEST PUSH2 0x4CD DUP2 PUSH2 0x417 JUMP JUMPDEST DUP5 ADD SWAP2 POP POP SWAP3 SWAP2 POP POP JUMP JUMPDEST PUSH1 0x0 PUSH1 0x20 DUP3 ADD SWAP1 POP DUP2 DUP2 SUB PUSH1 0x0 DUP4 ADD MSTORE PUSH2 0x4F2 DUP2 DUP5 PUSH2 0x49F JUMP JUMPDEST SWAP1 POP SWAP3 SWAP2 POP POP JUMP JUMPDEST PUSH1 0x0 PUSH1 0x40 DUP3 ADD SWAP1 POP DUP2 DUP2 SUB PUSH1 0x0 DUP4 ADD MSTORE PUSH2 0x514 DUP2 DUP6 PUSH2 0x428 JUMP JUMPDEST SWAP1 POP DUP2 DUP2 SUB PUSH1 0x20 DUP4 ADD MSTORE PUSH2 0x528 DUP2 DUP5 PUSH2 0x428 JUMP JUMPDEST SWAP1 POP SWAP4 SWAP3 POP POP POP JUMP JUMPDEST PUSH1 0x0 DUP2 SWAP1 POP SWAP3 SWAP2 POP POP JUMP JUMPDEST PUSH32 0x4869204D6F6D2100000000000000000000000000000000000000000000000000 PUSH1 0x0 DUP3 ADD MSTORE POP JUMP JUMPDEST PUSH1 0x0 PUSH2 0x572 PUSH1 0x7 DUP4 PUSH2 0x531 JUMP JUMPDEST SWAP2 POP PUSH2 0x57D DUP3 PUSH2 0x53C JUMP JUMPDEST PUSH1 0x7 DUP3 ADD SWAP1 POP SWAP2 SWAP1 POP JUMP JUMPDEST PUSH32 0x4D69737320596F75210000000000000000000000000000000000000000000000 PUSH1 0x0 DUP3 ADD MSTORE POP JUMP JUMPDEST PUSH1 0x0 PUSH2 0x5BE PUSH1 0x9 DUP4 PUSH2 0x531 JUMP JUMPDEST SWAP2 POP PUSH2 0x5C9 DUP3 PUSH2 0x588 JUMP JUMPDEST PUSH1 0x9 DUP3 ADD SWAP1 POP SWAP2 SWAP1 POP JUMP JUMPDEST PUSH1 0x0 PUSH2 0x5DF DUP3 PUSH2 0x565 JUMP JUMPDEST SWAP2 POP PUSH2 0x5EA DUP3 PUSH2 0x5B1 JUMP JUMPDEST SWAP2 POP DUP2 SWAP1 POP SWAP2 SWAP1 POP JUMP JUMPDEST PUSH1 0x0 DUP2 SWAP1 POP SWAP2 SWAP1 POP JUMP JUMPDEST PUSH1 0x0 PUSH1 0xFF DUP3 AND SWAP1 POP SWAP2 SWAP1 POP JUMP JUMPDEST PUSH1 0x0 DUP2 SWAP1 POP SWAP2 SWAP1 POP JUMP JUMPDEST PUSH1 0x0 PUSH2 0x630 PUSH2 0x62B PUSH2 0x626 DUP5 PUSH2 0x5F4 JUMP JUMPDEST PUSH2 0x60B JUMP JUMPDEST PUSH2 0x5FE JUMP JUMPDEST SWAP1 POP SWAP2 SWAP1 POP JUMP JUMPDEST PUSH2 0x640 DUP2 PUSH2 0x615 JUMP JUMPDEST DUP3 MSTORE POP POP JUMP JUMPDEST PUSH1 0x0 PUSH1 0x20 DUP3 ADD SWAP1 POP PUSH2 0x65B PUSH1 0x0 DUP4 ADD DUP5 PUSH2 0x637 JUMP JUMPDEST SWAP3 SWAP2 POP POP JUMP JUMPDEST PUSH32 0x616B68696C6D616E676100000000000000000000000000000000000000000000 PUSH1 0x0 DUP3 ADD MSTORE POP JUMP JUMPDEST PUSH1 0x0 PUSH2 0x697 PUSH1 0xA DUP4 PUSH2 0x531 JUMP JUMPDEST SWAP2 POP PUSH2 0x6A2 DUP3 PUSH2 0x661 JUMP JUMPDEST PUSH1 0xA DUP3 ADD SWAP1 POP SWAP2 SWAP1 POP JUMP JUMPDEST PUSH1 0x0 PUSH2 0x6B8 DUP3 PUSH2 0x68A JUMP JUMPDEST SWAP2 POP DUP2 SWAP1 POP SWAP2 SWAP1 POP JUMP JUMPDEST PUSH1 0x0 PUSH1 0x40 MLOAD SWAP1 POP SWAP1 JUMP JUMPDEST PUSH1 0x0 DUP1 REVERT JUMPDEST PUSH1 0x0 DUP1 REVERT JUMPDEST PUSH1 0x0 DUP1 REVERT JUMPDEST PUSH1 0x0 DUP1 REVERT JUMPDEST PUSH32 0x4E487B7100000000000000000000000000000000000000000000000000000000 PUSH1 0x0 MSTORE PUSH1 0x41 PUSH1 0x4 MSTORE PUSH1 0x24 PUSH1 0x0 REVERT JUMPDEST PUSH2 0x718 DUP3 PUSH2 0x417 JUMP JUMPDEST DUP2 ADD DUP2 DUP2 LT PUSH8 0xFFFFFFFFFFFFFFFF DUP3 GT OR ISZERO PUSH2 0x737 JUMPI PUSH2 0x736 PUSH2 0x6E0 JUMP JUMPDEST JUMPDEST DUP1 PUSH1 0x40 MSTORE POP POP POP JUMP JUMPDEST PUSH1 0x0 PUSH2 0x74A PUSH2 0x6C2 JUMP JUMPDEST SWAP1 POP PUSH2 0x756 DUP3 DUP3 PUSH2 0x70F JUMP JUMPDEST SWAP2 SWAP1 POP JUMP JUMPDEST PUSH1 0x0 PUSH8 0xFFFFFFFFFFFFFFFF DUP3 GT ISZERO PUSH2 0x776 JUMPI PUSH2 0x775 PUSH2 0x6E0 JUMP JUMPDEST JUMPDEST PUSH2 0x77F DUP3 PUSH2 0x417 JUMP JUMPDEST SWAP1 POP PUSH1 0x20 DUP2 ADD SWAP1 POP SWAP2 SWAP1 POP JUMP JUMPDEST PUSH1 0x0 PUSH2 0x79F PUSH2 0x79A DUP5 PUSH2 0x75B JUMP JUMPDEST PUSH2 0x740 JUMP JUMPDEST SWAP1 POP DUP3 DUP2 MSTORE PUSH1 0x20 DUP2 ADD DUP5 DUP5 DUP5 ADD GT ISZERO PUSH2 0x7BB JUMPI PUSH2 0x7BA PUSH2 0x6DB JUMP JUMPDEST JUMPDEST PUSH2 0x7C6 DUP5 DUP3 DUP6 PUSH2 0x3ED JUMP JUMPDEST POP SWAP4 SWAP3 POP POP POP JUMP JUMPDEST PUSH1 0x0 DUP3 PUSH1 0x1F DUP4 ADD SLT PUSH2 0x7E3 JUMPI PUSH2 0x7E2 PUSH2 0x6D6 JUMP JUMPDEST JUMPDEST DUP2 MLOAD PUSH2 0x7F3 DUP5 DUP3 PUSH1 0x20 DUP7 ADD PUSH2 0x78C JUMP JUMPDEST SWAP2 POP POP SWAP3 SWAP2 POP POP JUMP JUMPDEST PUSH1 0x0 PUSH1 0x20 DUP3 DUP5 SUB SLT ISZERO PUSH2 0x812 JUMPI PUSH2 0x811 PUSH2 0x6CC JUMP JUMPDEST JUMPDEST PUSH1 0x0 DUP3 ADD MLOAD PUSH8 0xFFFFFFFFFFFFFFFF DUP2 GT ISZERO PUSH2 0x830 JUMPI PUSH2 0x82F PUSH2 0x6D1 JUMP JUMPDEST JUMPDEST PUSH2 0x83C DUP5 DUP3 DUP6 ADD PUSH2 0x7CE JUMP JUMPDEST SWAP2 POP POP SWAP3 SWAP2 POP POP JUMP JUMPDEST PUSH1 0x0 PUSH2 0x852 PUSH1 0xA DUP4 PUSH2 0x3DC JUMP JUMPDEST SWAP2 POP PUSH2 0x85D DUP3 PUSH2 0x661 JUMP JUMPDEST PUSH1 0x20 DUP3 ADD SWAP1 POP SWAP2 SWAP1 POP JUMP JUMPDEST PUSH32 0x6E696B68696C6D616E6761000000000000000000000000000000000000000000 PUSH1 0x0 DUP3 ADD MSTORE POP JUMP JUMPDEST PUSH1 0x0 PUSH2 0x89E PUSH1 0xB DUP4 PUSH2 0x3DC JUMP JUMPDEST SWAP2 POP PUSH2 0x8A9 DUP3 PUSH2 0x868 JUMP JUMPDEST PUSH1 0x20 DUP3 ADD SWAP1 POP SWAP2 SWAP1 POP JUMP JUMPDEST PUSH1 0x0 PUSH1 0x40 DUP3 ADD SWAP1 POP DUP2 DUP2 SUB PUSH1 0x0 DUP4 ADD MSTORE PUSH2 0x8CD DUP2 PUSH2 0x845 JUMP JUMPDEST SWAP1 POP DUP2 DUP2 SUB PUSH1 0x20 DUP4 ADD MSTORE PUSH2 0x8E0 DUP2 PUSH2 0x891 JUMP JUMPDEST SWAP1 POP SWAP2 SWAP1 POP JUMP JUMPDEST PUSH1 0x0 PUSH2 0x8F4 PUSH1 0xB DUP4 PUSH2 0x531 JUMP JUMPDEST SWAP2 POP PUSH2 0x8FF DUP3 PUSH2 0x868 JUMP JUMPDEST PUSH1 0xB DUP3 ADD SWAP1 POP SWAP2 SWAP1 POP JUMP JUMPDEST PUSH1 0x0 PUSH2 0x915 DUP3 PUSH2 0x68A JUMP JUMPDEST SWAP2 POP PUSH2 0x920 DUP3 PUSH2 0x8E7 JUMP JUMPDEST SWAP2 POP DUP2 SWAP1 POP SWAP2 SWAP1 POP JUMP JUMPDEST PUSH1 0x0 DUP1 PUSH1 0x40 DUP4 DUP6 SUB SLT ISZERO PUSH2 0x941 JUMPI PUSH2 0x940 PUSH2 0x6CC JUMP JUMPDEST JUMPDEST PUSH1 0x0 DUP4 ADD MLOAD PUSH8 0xFFFFFFFFFFFFFFFF DUP2 GT ISZERO PUSH2 0x95F JUMPI PUSH2 0x95E PUSH2 0x6D1 JUMP JUMPDEST JUMPDEST PUSH2 0x96B DUP6 DUP3 DUP7 ADD PUSH2 0x7CE JUMP JUMPDEST SWAP3 POP POP PUSH1 0x20 DUP4 ADD MLOAD PUSH8 0xFFFFFFFFFFFFFFFF DUP2 GT ISZERO PUSH2 0x98C JUMPI PUSH2 0x98B PUSH2 0x6D1 JUMP JUMPDEST JUMPDEST PUSH2 0x998 DUP6 DUP3 DUP7 ADD PUSH2 0x7CE JUMP JUMPDEST SWAP2 POP POP SWAP3 POP SWAP3 SWAP1 POP JUMP JUMPDEST PUSH1 0x0 PUSH1 0x20 DUP3 ADD SWAP1 POP DUP2 DUP2 SUB PUSH1 0x0 DUP4 ADD MSTORE PUSH2 0x9BB DUP2 PUSH2 0x845 JUMP JUMPDEST SWAP1 POP SWAP2 SWAP1 POP JUMP INVALID LOG2 PUSH5 0x6970667358 0x22 SLT KECCAK256 PUSH10 0x57405EA23940B0E45417 0xB4 0xEC 0xBD SWAP13 0xF8 0xC5 0x23 DUP6 PUSH22 0x1738BC871DBEB8595F112D164736F6C634300081200 CALLER "
				},
				"gasEstimates": {
					"creation": {
						"codeDepositCost": "510400",
						"executionCost": "543",
						"totalCost": "510943"
					},
					"external": {
						"combineStrings()": "infinite",
						"decodeString()": "infinite",
						"encodeNumber()": "infinite",
						"encodeString()": "infinite",
						"encodeStringBytes()": "infinite",
						"encodeStringPacked()": "infinite",
						"multiDecode()": "infinite",
						"multiDecodePacked()": "infinite",
						"multiEncode()": "infinite",
						"multiEncodePacked()": "infinite",
						"multiStringCastPacked()": "infinite"
					}
				},
				"methodIdentifiers": {
					"combineStrings()": "114a7610",
					"decodeString()": "a77b0360",
					"encodeNumber()": "15889d1a",
					"encodeString()": "ed5df365",
					"encodeStringBytes()": "406ec9f2",
					"encodeStringPacked()": "2085f4b9",
					"multiDecode()": "c452d79b",
					"multiDecodePacked()": "929b807e",
					"multiEncode()": "a6dc49b8",
					"multiEncodePacked()": "b4748718",
					"multiStringCastPacked()": "60ee46c3"
				}
			},
			"storageLayout": {
				"storage": [],
				"types": null
			},
			"userdoc": {
				"kind": "user",
				"methods": {},
				"version": 1
			}
		}
	}
}