{
	"data": {
		"bytecode": {
			"linkReferences": {},
			"object": "608060405234801561001057600080fd5b5061021e806100206000396000f3fe608060405234801561001057600080fd5b506004361061002b5760003560e01c8063114a761014610030575b600080fd5b61003861004e565b6040516100459190610103565b60405180910390f35b606060405160200161005f906101c8565b604051602081830303815290604052905090565b600081519050919050565b600082825260208201905092915050565b60005b838110156100ad578082015181840152602081019050610092565b60008484015250505050565b6000601f19601f8301169050919050565b60006100d582610073565b6100df818561007e565b93506100ef81856020860161008f565b6100f8816100b9565b840191505092915050565b6000602082019050818103600083015261011d81846100ca565b905092915050565b600081905092915050565b7f4869204d6f6d2100000000000000000000000000000000000000000000000000600082015250565b6000610166600783610125565b915061017182610130565b600782019050919050565b7f4d69737320596f75210000000000000000000000000000000000000000000000600082015250565b60006101b2600983610125565b91506101bd8261017c565b600982019050919050565b60006101d382610159565b91506101de826101a5565b915081905091905056fea2646970667358221220d103e3e4a563219f83d18953fe7664a72ef7b823a8d7b3af489cf0234d3d420e64736f6c63430008120033",
			"opcodes": "PUSH1 0x80 PUSH1 0x40 MSTORE CALLVALUE DUP1 ISZERO PUSH2 0x10 JUMPI PUSH1 0x0 DUP1 REVERT JUMPDEST POP PUSH2 0x21E DUP1 PUSH2 0x20 PUSH1 0x0 CODECOPY PUSH1 0x0 RETURN INVALID PUSH1 0x80 PUSH1 0x40 MSTORE CALLVALUE DUP1 ISZERO PUSH2 0x10 JUMPI PUSH1 0x0 DUP1 REVERT JUMPDEST POP PUSH1 0x4 CALLDATASIZE LT PUSH2 0x2B JUMPI PUSH1 0x0 CALLDATALOAD PUSH1 0xE0 SHR DUP1 PUSH4 0x114A7610 EQ PUSH2 0x30 JUMPI JUMPDEST PUSH1 0x0 DUP1 REVERT JUMPDEST PUSH2 0x38 PUSH2 0x4E JUMP JUMPDEST PUSH1 0x40 MLOAD PUSH2 0x45 SWAP2 SWAP1 PUSH2 0x103 JUMP JUMPDEST PUSH1 0x40 MLOAD DUP1 SWAP2 SUB SWAP1 RETURN JUMPDEST PUSH1 0x60 PUSH1 0x40 MLOAD PUSH1 0x20 ADD PUSH2 0x5F SWAP1 PUSH2 0x1C8 JUMP JUMPDEST PUSH1 0x40 MLOAD PUSH1 0x20 DUP2 DUP4 SUB SUB DUP2 MSTORE SWAP1 PUSH1 0x40 MSTORE SWAP1 POP SWAP1 JUMP JUMPDEST PUSH1 0x0 DUP2 MLOAD SWAP1 POP SWAP2 SWAP1 POP JUMP JUMPDEST PUSH1 0x0 DUP3 DUP3 MSTORE PUSH1 0x20 DUP3 ADD SWAP1 POP SWAP3 SWAP2 POP POP JUMP JUMPDEST PUSH1 0x0 JUMPDEST DUP4 DUP2 LT ISZERO PUSH2 0xAD JUMPI DUP1 DUP3 ADD MLOAD DUP2 DUP5 ADD MSTORE PUSH1 0x20 DUP2 ADD SWAP1 POP PUSH2 0x92 JUMP JUMPDEST PUSH1 0x0 DUP5 DUP5 ADD MSTORE POP POP POP POP JUMP JUMPDEST PUSH1 0x0 PUSH1 0x1F NOT PUSH1 0x1F DUP4 ADD AND SWAP1 POP SWAP2 SWAP1 POP JUMP JUMPDEST PUSH1 0x0 PUSH2 0xD5 DUP3 PUSH2 0x73 JUMP JUMPDEST PUSH2 0xDF DUP2 DUP6 PUSH2 0x7E JUMP JUMPDEST SWAP4 POP PUSH2 0xEF DUP2 DUP6 PUSH1 0x20 DUP7 ADD PUSH2 0x8F JUMP JUMPDEST PUSH2 0xF8 DUP2 PUSH2 0xB9 JUMP JUMPDEST DUP5 ADD SWAP2 POP POP SWAP3 SWAP2 POP POP JUMP JUMPDEST PUSH1 0x0 PUSH1 0x20 DUP3 ADD SWAP1 POP DUP2 DUP2 SUB PUSH1 0x0 DUP4 ADD MSTORE PUSH2 0x11D DUP2 DUP5 PUSH2 0xCA JUMP JUMPDEST SWAP1 POP SWAP3 SWAP2 POP POP JUMP JUMPDEST PUSH1 0x0 DUP2 SWAP1 POP SWAP3 SWAP2 POP POP JUMP JUMPDEST PUSH32 0x4869204D6F6D2100000000000000000000000000000000000000000000000000 PUSH1 0x0 DUP3 ADD MSTORE POP JUMP JUMPDEST PUSH1 0x0 PUSH2 0x166 PUSH1 0x7 DUP4 PUSH2 0x125 JUMP JUMPDEST SWAP2 POP PUSH2 0x171 DUP3 PUSH2 0x130 JUMP JUMPDEST PUSH1 0x7 DUP3 ADD SWAP1 POP SWAP2 SWAP1 POP JUMP JUMPDEST PUSH32 0x4D69737320596F75210000000000000000000000000000000000000000000000 PUSH1 0x0 DUP3 ADD MSTORE POP JUMP JUMPDEST PUSH1 0x0 PUSH2 0x1B2 PUSH1 0x9 DUP4 PUSH2 0x125 JUMP JUMPDEST SWAP2 POP PUSH2 0x1BD DUP3 PUSH2 0x17C JUMP JUMPDEST PUSH1 0x9 DUP3 ADD SWAP1 POP SWAP2 SWAP1 POP JUMP JUMPDEST PUSH1 0x0 PUSH2 0x1D3 DUP3 PUSH2 0x159 JUMP JUMPDEST SWAP2 POP PUSH2 0x1DE DUP3 PUSH2 0x1A5 JUMP JUMPDEST SWAP2 POP DUP2 SWAP1 POP SWAP2 SWAP1 POP JUMP INVALID LOG2 PUSH5 0x6970667358 0x22 SLT KECCAK256 0xD1 SUB 0xE3 0xE4 0xA5 PUSH4 0x219F83D1 DUP10 MSTORE8 INVALID PUSH23 0x64A72EF7B823A8D7B3AF489CF0234D3D420E64736F6C63 NUMBER STOP ADDMOD SLT STOP CALLER "
		},
		"gasEstimates": {
			"creation": {
				"codeDepositCost": "108400",
				"executionCost": "153",
				"totalCost": "108553"
			},
			"external": {
				"combineStrings()": "infinite"
			}
		},
		"methodIdentifiers": {
			"combineStrings()": "114a7610"
		}
	},
	"abi": [
		{
			"inputs": [],
			"name": "combineStrings",
			"outputs": [
				{
					"internalType": "string",
					"name": "",
					"type": "string"
				}
			],
			"stateMutability": "pure",
			"type": "function"
		}
	]
}